:020000040800F2
:10000000202300205D0200081F4F00085B45000808
:100010001D4F0008650E0008B157000800000000E1
:100020000000000000000000000000009D0100082A
:100030007910000800000000F9010008C55100080F
:1000400077020008770200087702000877020008AC
:10005000770200087702000877020008770200089C
:10006000770200087702000877020008CD0F000829
:10007000D90F000877020008E50F0008F10F00080B
:100080007702000877020008B10A0008770200082A
:10009000990E00087702000877020008770200082E
:1000A000770200087702000877020008770200084C
:1000B00077020008770200080000000077020008BD
:1000C000770200080000000000000000770200082E
:1000D00000000000A557000877020008770200081A
:1000E000770200087702000800000000000000000E
:1000F0000000000000000000000000000000000000
:1001000000000000000000000000000000000000EF
:10011000000000000000000077020008795200088B
:1001200000000000000000000000000000000000CF
:1001300000000000000000000000000000000000BF
:10014000770200087702000800000000770200082C
:10015000770200087702000877020008770200089B
:10016000770200087702000800000000000000008D
:10017000000000000000000000000000000000007F
:100180000000000077020008DFF80CD000F04EFC01
:10019000004800476D680008202300202C4B196898
:1001A0000868B0E8F04F80F30988BFF36F8F4FF015
:1001B000000080F3118870470000000008480068C4
:1001C000006880F308884FF0000080F3148862B65E
:1001D00061B6BFF34F8FBFF36F8F00DF00BF00BF6B
:1001E00008ED00E0DFF80C00016841F470010160E7
:1001F000704700BF88ED00E0EFF30980BFF36F8F19
:10020000134B1A681EF0100F08BF20ED108A20E96A
:10021000F04F106009B44FF0500080F31188BFF325
:100220004F8FBFF36F8F06F08DFF4FF0000080F30C
:10023000118809BC19680868B0E8F04F1EF0100F6B
:1002400008BFB0EC108A80F30988BFF36F8F704746
:100250005C080020EFF305807047000006488047E7
:1002600006480047FEE7FEE7FEE7FEE7FEE7FEE79B
:10027000FEE7FEE7FEE7FEE75D52000889010008A1
:100280002DE9F05F0546002092469B4688460646CB
:10029000814640241BE0284641464746224600F05E
:1002A00020F853465A46C01A914110D311461846B9
:1002B000224600F055FA2D1A67EB01084F462246F8
:1002C0000120002100F04CFA17EB00094E41201EDE
:1002D000A4F10104DFDC484631462A464346BDE826
:1002E000F09F202A04DB203A21FA02F00021704717
:1002F00021FA02F3D040C2F120029140084319468E
:10030000704740EA01039B0703D009E008C9121FA8
:1003100008C0042AFAD203E011F8013B00F8013BBF
:10032000521EF9D27047D2B201E000F8012B491EEB
:10033000FBD270470022F6E710B513460A46044682
:100340001946FFF7F0FF204610BD421C10F8011BB4
:100350000029FBD1801A70472DE9FE4F804681EAC3
:100360000300C00F0C46009021F0004123F000452F
:10037000B8EB0200A94105D24046214690461C46F2
:100380000B46024623F00040104347D0270DC7F329
:100390000A00C3F30A510290401A019040286BDA18
:1003A000C3F3130040F4801B0098924620B1002351
:1003B000D2EB030A63EB0B0B01985946C0F14002E4
:1003C000504600F0CDF906460D4650465946019A72
:1003D00000F0D5F910EB08006141002487EA1152C2
:1003E00084EAE7731A4340D0009A62B3019A012A63
:1003F0004FEA075215DC001B61EB02014FF000428F
:1004000002EA0752CDE90042001C41F58011324654
:100410002B4600F00CFA03B0BDE8F08F40462146B1
:10042000F9E7001B61EB0201001C41F58013001885
:100430005B412018A2F5001747EB030140EAD57095
:10044000B6196D4111E06D084FEA360645EAC075F0
:100450004FEA0752001B61EB0201001C41F58011BD
:1004600049084FEA30000019514132462B4603B08B
:10047000BDE8F04F00F0CCB9009801224000002305
:10048000D0EB020263EBE073009821464FEAE07480
:10049000B8EB000061EB0401E9E783F000435BE7A0
:1004A00081F0004158E72DE9FE4F81EA030404F092
:1004B000004421F0004100944FF0000B23F0004372
:1004C00050EA01045ED052EA03045BD0C3F30A543D
:1004D000C1F30A552C44A4F2F3340194A0FB025456
:1004E000C1F3130141F48011C3F3130343F48013E8
:1004F00001FB024400FB034E840A970A44EA81543C
:1005000047EA8357A4FB076802958D0A05FB078518
:100510004FEA932C04FB0C542705029D4FEA065822
:1005200047EA1637B5EB08056EEB070C870E920EFF
:1005300047EA811742EA8312A7FB0201B6EB0B01DF
:1005400064EB00042B0D43EA0C335E1844EB1C50A3
:10055000DA465146E7FB0201C5F313044FEA0B33B9
:1005600043EA14534FEA0432019C43EA0603A4F120
:100570000C040294009CCDE900B400F058F903B0DB
:10058000BDE8F08F00200146F9E72DE9F04D81EA42
:10059000030404F0004B21F0004514464FF0000A1C
:1005A00023F0004150EA050220D054EA01021DD098
:1005B000C5F30A570246C5F31303C1F31300C1F391
:1005C0000A5640F4801543F48013A7EB0608101B6D
:1005D000D64608F2FD3873EB050002D308F1010896
:1005E00001E092185B41B8F1000F03DA00200146E8
:1005F000BDE8F08D00204FF48011064684460EE0E1
:10060000171B73EB050705D3121B63EB05030643AA
:100610004CEA010C49084FEA300092185B4150EA5D
:100620000107EDD152EA030012D082EA040083EA06
:100630000501084305D0101BAB4106D2012200235F
:1006400006E000224FF0004302E06FF00102531079
:100650001AEB06004CEB085110EB0A0041EB0B01C2
:10066000BDE8F04D00F0D4B870B5C1F30A5201F006
:1006700000450024C1F3130140F2FF3341F480111F
:100680009A4201DA002070BD40F233439A42A2F24E
:10069000334203DC5242FFF724FE00E090402C433B
:1006A000F1D0404270BD00F0004230F000400AD06E
:1006B000C10D01F56071C0F3160042EA0151C20894
:1006C00040071143704700200146704730B5041EB3
:1006D00071F1000404DB4FF00044404264EB01017F
:1006E000141E73F1000405DB1C464FF00043524218
:1006F00063EB04038B4208BF824230BD01F000432C
:1007000030B421F0004150EA010206D00A0DA2F5F2
:100710006072C1F31301002A02DC30BC0020704774
:10072000440F44EAC104C100E01830BC00EBC250E1
:1007300000F037B830B50B460146002020220124D6
:1007400009E021FA02F59D4205D303FA02F5491B9F
:1007500004FA02F52844151EA2F10102F1DC30BDB5
:10076000202A04DB203A00FA02F100207047914071
:10077000C2F1200320FA03F3194390407047202A66
:1007800006DBCB17203A41FA02F043EAE07306E0B9
:1007900041FA02F3D040C2F12002914008431946C9
:1007A00070470029A8BF7047401C490008BF20F0CF
:1007B0000100704710B4B0FA80FC00FA0CF050EA67
:1007C000010404BF10BC704749B1CCF1200421FAE8
:1007D00004F411FA0CF118BF012121430843A3EBE3
:1007E0000C01CB1D4FEA00614FEA102042BF0020F0
:1007F00010BC704700EBC35010440029A4BF10BCCC
:100800007047401C490008BF20F0010010BC704731
:1008100010B5141E73F1000408DA401C41F1000108
:1008200092185B411A4301D120F0010010BD2DE95F
:10083000F04D92469B4611B1B1FA81F202E0B0FA56
:1008400080F220329046FFF78BFF04460F4640EAC5
:100850000A0041EA0B0153465A46084313D0114699
:1008600053EA010019D0C8F140025046FFF739FDA4
:1008700005460E46504659464246FFF771FF08436B
:1008800005D0012004E020463946BDE8F08D002067
:10089000054346EAE0762C4337430A986305E40AA9
:1008A000A0EB08000022FD0A44EA47540A3002D5B2
:1008B00000200146E9E7010510196941DDE9084515
:1008C00000196941BDE8F04DA2E72DE9F04D002384
:1008D0001A461B1A8A4103DB00200146BDE8F08D51
:1008E000C1F30A52C1F3130141F480154FF0000B1C
:1008F000D10702D100186D41521E0027044640F274
:10090000FF11384601EB620A3E468046024600204F
:100910004FF48011FFF7E5FCC2197141BB1846EB9B
:100920000100B4EB030C75EB000C04D3E41A65EB87
:10093000000517460E46241908F101006D41804656
:100940003428E3DDF91946EB0600091BA84103D260
:100950004FF0FF32134601E0002213461BEB070065
:1009600046EB0A51BDE8F04DFFF752BFC1F30A5202
:10097000C1F3130140F2FF3341F480119A4202DACD
:1009800000200146704740F233439A42A2F23342BC
:1009900002DC5242FFF7A5BCFFF7E2BE30B5041EF1
:1009A00071F1000404DB4FF00044404264EB0101AC
:1009B000141E73F1000405DB1C464FF00043524245
:1009C00063EB0403994208BF904230BD70B5044602
:1009D00001F000450020054304D14FF0004564427A
:1009E00065EB010103F00045284305D118464FF09F
:1009F0000043524263EB0003101B73EB010002D271
:100A00004FF0004009E082EA040283EA01034FF05C
:100A100000501A4301D14FF0C0404FEA2062EFF37B
:100A2000008162F31F6181F3008870BD064C074DA1
:100A300006E0E06840F0010394E8070098471034AE
:100A4000AC42F6D3FFF7A4FB807E0008A07E00082E
:100A500070B58D1810F8014B14F0030201D110F895
:100A6000012B231106D110F8013B03E010F8016BB4
:100A700001F8016B521EF9D1ABB110F8012B04F053
:100A80000C048A1A0C2C03D0A2EB84129B1C08E0E5
:100A900010F8014BA2EB0422F8E712F8014B01F821
:100AA000014B5B1EF9D5A942D4D3002070BD0000D4
:100AB00010B5044800F07EFFBDE81040024800F089
:100AC00079BF0000140A0020640A00200146406A31
:100AD000026C12F0500F03D0806B026B0846104777
:100AE000016C41F4007101640168C96811F4406F40
:100AF0000CD1417E51B9016C21F480710164016C0B
:100B0000C90403D4016C41F00101016400F04EBF3F
:100B1000406A016C41F040010164416C41F0040104
:100B2000416400F045BF406A00F041BF70B5044623
:100B30000068816801F00301012926D10168C90715
:100B400023D0816801F00D01012910D1816841F0A5
:100B50000201816021680320086002F04DF805461B
:100B60000FE000BF02F048F8401B022809D9206CB2
:100B700040F010002064606C40F0010060640120CF
:100B800070BD20688068C007ECD1002070BD0000F7
:100B900070B504460068816801F00301012902D1A3
:100BA0000168C90720D18168104A11420DD18168BE
:100BB00041F00101816002F01FF805460FE000BF1F
:100BC00002F01AF8401B022809D9206C40F01000EE
:100BD0002064606C40F001006064012070BD2068FA
:100BE0000068C043C007EBD1002070BD3F0000800B
:100BF00090ED010AF8EE400A9FED0F0A20EE801AF0
:100C0000DFED0E0A21EE201A80ED061A90ED021A91
:100C1000B8EE411A21EE001A21EE201A80ED041AD6
:100C200090ED031AB8EE411A21EE000A20EE200AD8
:100C300080ED050A704700003333534000008039CF
:100C400010B5044600F0A4F8B5EEC00A84ED190A08
:100C5000F1EE10FA05D2DFED030A30EE200A84ED42
:100C6000190A10BDDB0FC94070B504462DED028B8B
:100C70000D46084600F082F984ED010A284600F08E
:100C800091F984ED020AD4ED010AB0EE401A04F1A4
:100C90001801B1EE600A081D70EE411A0E460546B5
:100CA000C4ED031A94ED190A05F0CCFC9FED0E8BF0
:100CB0003146B5EE001AB0EE480AF0EE680A04F1CB
:100CC0003002084603F066FCB0EE480AF0EE680A0F
:100CD0002946BDEC028B04F13802BDE87040B5EE48
:100CE000001A084603F056BC00000000006AB84035
:100CF00090ED191AD0ED1A0ADFED101A71EE600AA4
:100D000010EE901A11F17F5F02D970EEA10A06E091
:100D100010EE901A0A4A914201DD70EEE10AC0EE2F
:100D2000801AF1EE0C0AC0ED201AB0EE610AC0EE96
:100D3000201AC0ED201A80ED1A1A7047DB0FC94047
:100D40000000404090ED190AD0ED1B0A0D4A70EEEC
:100D5000601A11EE901A914203DD9FED0B0A71EEBD
:100D6000C01A90ED281AD0ED260A90ED270A00F15E
:100D7000200200F1A401DFED052AB7EE002A783049
:100D800006F032B8DB0F4940DB0FC940ACC527394C
:100D90002DE9F04100242DED048B692782B0254612
:100DA0004FF00E08012602226946284801F0B6F8E5
:100DB00002226946254801F0B1F800987043B0FB63
:100DC000F7F0044401987043B0FBF7F0761C05443B
:100DD0004645E8DD00EE104A9FED1D1A9FED1E8A84
:100DE000B8EE400ADFED1B0A60EE011AB0EE480AC9
:100DF00011EEA00A01EE905AF8EE611A10EE100AF8
:100E000021EE811A11EE208AFFF74DFC41EC190BFF
:100E100018EE100AFFF747FC41EC100BB0EE491A30
:100E2000F0EE691A05F086FA9FED0C1B51EC100BE1
:100E300053EC112BFFF790FAFFF760FC02B000EEC5
:100E4000100ABDEC048BBDE8F0810000640A0020AC
:100E50000000803933335340C58F793F0000006074
:100E6000FB210940FEE70000094800210122016141
:100E7000C0E9061243F6E073C0E90031C0E902316F
:100E80004161C0E908210146024801F041B9000072
:100E9000F40800203C0B0020014801F025BA0000B6
:100EA0003C0B002004480021016041608160C1606A
:100EB0000821016170470000D8080020064840F270
:100EC000FF110160002141608160C1600821016162
:100ED0000121017570470000C0080020054910B5C8
:100EE00001200860FFF7C0FFFFF7DCFFBDE81040FE
:100EF000FFF7E4BF0400002010B59FED0F0A044681
:100F000080ED070A80ED080A80ED040A80ED050AED
:100F100080ED060A80ED090A80ED0A0A00680021CA
:100F200000F0DCFA2046FFF763FE9FED040A84ED33
:100F3000070A84ED080A10BD000000003333D33FD8
:100F4000DFED070A074901E030EE600A10EE100AF3
:100F50008842F9DCDFED040A30EE200A04F0DAB84A
:100F6000DB0FC940DB0FC940DB0FC93F024A1160EC
:100F700008601068FFF7C0BF1400002090ED080A59
:100F8000D0ED050A9FED051A30EE600AC0EE010AA9
:100F90009FED031A80EE810A704700000000204296
:100FA0008FC2F53B90ED070AD0ED040A9FED051ABC
:100FB00030EE600AC0EE010A9FED031A80EE810A4E
:100FC00070470000000020428FC2F53B014801F04D
:100FD000CFBB0000B40A0020014801F0C9BB0000EB
:100FE000F80A0020014801F0C3BB0000D80F002020
:100FF000014801F0BDBB0000940F0020054A0168C4
:1010000011441422B1FBF2F1890001640249C16369
:1010100070470000F8FFFDBF0000024030B590F8B7
:1010200040500124AC40C56B6C6004686360436849
:10103000102B036803D099600068C26030BD9A60CD
:101040000068C16030BD00000FB40A4810B503AAA3
:10105000029904F0C9FB04460648FFF776F90549F2
:1010600082B2A1F5847003F0F9F8204610BC5DF857
:1010700014FB00001C100020704770470649002038
:10108000C8610648016941F004010161016941F04C
:101090004001016170470000101200200020024052
:1010A000064A0021D16106490A6942F002020A613A
:1010B0004861086940F04000086170471012002044
:1010C00000200240044B0022DA61044A136943F015
:1010D00001031361018070471012002000200240BC
:1010E0000A490020CA68D306094A04D5D06940F0ED
:1010F0000200D0611020CB685B0705D5D36943F0AF
:101100000103D36140F00400C86070470020024032
:101110001012002070B5054601F06EFD0646104C19
:1011200009E0681C07D025B101F066FD801BA842CC
:1011300001D9032070BDE068C007F2D1E0688006E5
:1011400001D52020E060E068C00602D4E0684007D6
:1011500003D5FFF7C5FF012070BD002070BD000062
:101160000020024070B504462DED028B0D469FED28
:101170002B8A80ED018A80ED028A80ED038A80ED62
:10118000098A80ED088A80ED068A80ED078A80ED65
:101190000A8A80ED0B8A80ED0C8A80ED0E8A80ED44
:1011A000108A80ED118A80ED128A84ED138A84ED15
:1011B000148A84ED158A84ED168A84ED178A84EDED
:1011C000188A84ED198A84ED1A8A84ED1B8A84EDCD
:1011D0001E8A84ED1F8A84ED208A84ED218AFFF720
:1011E000D7FD84ED1C0A84ED298A0020C4F8A800EC
:1011F00084ED0D8A84ED0F8A302084F8B000012040
:1012000084F8B1002846256003F034FFBDEC028B62
:101210002046BDE8704005F09FBA000000000000C5
:1012200010B52048FFF70CFD1F48FFF7E1FC1E48F2
:10123000F2EE080A1B4C90ED060A0146204620EE0D
:10124000200A84ED2B0AFFF70FFD211D94F8B10051
:10125000F2EE0E1A91EC030A05F0A4F9216894F855
:10126000B10091EC030A03F05BFE94ED060AB5EEC3
:10127000C00AF1EE10FA01D2012000E00020414244
:10128000012000EB410100EE901AF8EEE00A20EE9A
:10129000200A10EE101AB1F1814F01DB03490870EA
:1012A00010BD00001C090020D009002018000020FB
:1012B000094C00BFFFF7B4FF00F0E2F8012005F091
:1012C000F6FA0021206800F009F90322211D2068A8
:1012D00000F024FEEEE70000D00900207CB50446B3
:1012E0009FED600AFFF704FD94F8B00004F12005BB
:1012F000312802D032280ED010E004F18002D4ED63
:10130000250A94ED240AB3EE041A2B46111F101D72
:1013100005F028FD02E02046FFF714FD206AFFF7E4
:10132000C2F941EC100B9FED501B04F0CBFA9FED7E
:10133000501B04F085FA51EC100BFFF7DFF99FED1D
:101340004E0A206284ED090A04F14803D4ED230A11
:1013500094ED220AB1EE081A1E4604F1180229463D
:1013600004F1280005F0FEFC04F14C03D4ED230A3F
:1013700094ED220AB1EE081A1D4604F11C0204F194
:10138000240104F12C0005F0EDFCB3EE080A31460F
:10139000284605F013FA94ED130AF3EE081A68468E
:1013A000C0EE210ACDED000A94ED120AC0EE210A2A
:1013B000CDED010A05F038FA01A805F035FA9DEDEA
:1013C000000A204620EE210A84ED130A9DED010A51
:1013D00020EE210A84ED120A94ED190A84ED1A0A0E
:1013E000FFF72EFC04F16002111F94ED121AD4EDE8
:1013F000130A94ED190A081F04F056FF04F158006F
:1014000090EC030A206803F0DBFD2068B7EE000AC9
:10141000D0ED000A30EE601ADFED180A21EE201A36
:10142000BDEEC11A80ED031A206890ED011A30EE6E
:10143000411A21EE201ABDEEC11A80ED041A20686F
:1014400090ED021A30EE410A20EE200ABDEEC00AED
:1014500010EE102A426120680169C06803F022FE84
:101460007CBD00006F12833A0000000000001440B1
:1014700000000000000014C0000000000000204731
:1014800010B51348134C007810B1012084F8B10056
:1014900094F8B100012805D0022813D0BDE810400F
:1014A00003F02ABE03F028FE206803F0E3FD9FED61
:1014B0000A0A84ED0A0A84ED0B0A84ED210A84ED00
:1014C0001E0A10BDBDE810400248FFF707BF00002C
:1014D000180000201C090020000000002DE9F04148
:1014E000044690F83C00884601280AD0012584F87B
:1014F0003C502046FFF71AFB06004FF0000703D0D0
:1015000033E00220BDE8F08125642068816821F085
:1015100080418160B8F1010F04D12068816841F0F9
:10152000804181602068816841F00041816001F064
:1015300063FB05460FE000BF01F05EFB401B0A287D
:1015400009D9206C20F0020040F01000206484F8DB
:101550003C700120D6E7206880680028ECDB206C16
:1015600020F0020040F00100206484F83C70304616
:10157000C8E77047704770477047000070B5026851
:1015800000234FF0A04494B0A24200D1314C00940B
:1015900090F83C40012C1FD0012480F83C40926818
:1015A00052074CD4009A9268520748D42A4A0D68D0
:1015B00040F61F7445B3956890F8306025F4604597
:1015C00045EA46354E68354395600568AE6806F0D5
:1015D0000306012E06D102E0022014B070BD2D6872
:1015E000ED0731D1009DAD6805F00305012D03D154
:1015F000009D2D68ED0727D10D6889680D4391681E
:10160000A1430D4395601FE0916821F46041916012
:1016100001688D6805F00305012D02D10968C9072D
:1016200012D10099896801F00301012903D10099C1
:101630000968C90708D19168A143916004E0016C71
:1016400041F0200101640123002180F83C1018467C
:10165000C3E700000001005000030050F0B594B053
:101660000025009590F83C202E46012A19D001272C
:1016700080F83C7003689A6852077CD44A681F243B
:10168000052A11D2D3F830C002EB42025200944036
:101690002CEA040C0C6894404CEA040CC3F830C0EB
:1016A00035E0022014B0F0BD0A2A0FD2D3F834C0BE
:1016B000521F02EB4202520094402CEA040C0C68C8
:1016C00094404CEA040CC3F834C020E00F2A0FD237
:1016D000D3F838C00A3A02EB4202520094402CEA96
:1016E000040C0C6894404CEA040CC3F838C00EE0BB
:1016F000D3F83CC00F3A02EB4202520094402CEA6D
:10170000040C0C6894404CEA040CC3F83CC002681A
:10171000936813F00C0F4FF0070374D1D1F800E079
:10172000BEF10A0F10D39469AEF10A0E0EEB4E0C07
:1017300003FA0CFE24EA0E04D1F808E00EFA0CFEBF
:1017400044EA0E0494610FE0D2F814C00EEB4E048C
:1017500003FA04FE2CEA0E0CD1F808E00EFA04FE9F
:101760004CEA0E0CC2F814C002684C69D2F80CC0E6
:10177000CCF3C10C00E0E1E04FEA4C0C04FA0CF4AD
:10178000D1F810E0DFF810C2BEF1010F42D0BEF177
:10179000020F4DD0BEF1030F58D0BEF1040F63D03D
:1017A000146E91F800C004F0F844B4EB8C6F03D1D0
:1017B000146E24F0004414660268546E91F800C060
:1017C00004F0F844B4EB8C6F03D1546E24F0004461
:1017D00054660268946E91F800C004F0F844B4EBCB
:1017E0008C6F03D1946E24F0004494660268D46E2A
:1017F00091F800C004F0F844B4EB8C6F03D1D46EC0
:1018000024F00044D4660268946804F00304012CB8
:101810003AD136E0D2F860E00EEA0C0E91F800C042
:1018200044EA8C644EEA040E4EF000441466EAE783
:10183000D2F864E00EEA0C0E91F800C044EA8C6421
:101840004EEA040E4EF000445466DCE7D2F868E03D
:101850000EEA0C0E91F800C044EA8C644EEA040EC5
:101860004EF000449466CEE7D2F86CE00EEA0C0E1F
:1018700091F800C044EA8C644EEA040E4EF0004435
:10188000C0E71468E4075ED1CC68012C06D052F89A
:10189000B03F0C78A740BB43136020E052F8B04F34
:1018A00091F800C007FA0CF73C4314600A6804681A
:1018B0000A2A0AD3A769093A02EB420293409F43DE
:1018C0008B6893401F43A76109E06769521C02EBD4
:1018D000420293409F438B6893401F4367610968AE
:1018E0002E4A102904D0112905D0122906D02AE049
:1018F00093681B0204E09368DB0101E093685B02DC
:10190000002B20DB03684FF0A044A34202D1244FF8
:10191000009700E000949F6807F00307012F02D1B1
:101920001F68FF070AD1009F8FB1BF6807F0030748
:10193000012F0CD1009F3F68FF0708D0016C41F0D8
:1019400020010164012580F83C602846AAE61029A0
:1019500008D011291AD01229F5D1916841F48001DB
:101960009160F0E7A342EED1916841F400019160EB
:101970000C490D4A0968B1FBF2F101EB8101490004
:1019800000E0491E00910029FBD1DCE7A342DAD137
:10199000916841F08071E3E700F0FF83000300509D
:1019A000000100505808002040420F007047704767
:1019B0007047000070B50446006801684FF0A0450C
:1019C000490702D54168490705D40168090748D588
:1019D0004168090745D5216CC90603D4216C41F43F
:1019E00000712164D5F80813C9060DD0D5F8081385
:1019F00001F01F01052907D0D5F8081301F01F01D8
:101A0000092901D0A84201D1C16800E0E968C26893
:101A100012F4406F1FD189041DD4016809071AD53B
:101A2000816849070FD4416821F00C014160206CA6
:101A300020F480702064206CC0040CD4206C40F032
:101A40000100206407E0206C40F010002064606C0E
:101A500040F0010060642046FFF7A8FF21680C20D9
:101A6000086020680168890602D54168890605D4A6
:101A70000168490662D5416849065FD5216C41F489
:101A800000512164D5F80813C9060DD0D5F8081304
:101A900001F01F01052907D0D5F8081301F01F0137
:101AA000092901D0A84201D1C16800E0E968C26CEF
:101AB00012F0C00F07D08A013AD4C26812F4406F06
:101AC00036D1890434D40168490631D5D5F80813D4
:101AD000C9060DD0D5F8081301F01F01062907D05B
:101AE000D5F8081301F01F01072901D0A84201D140
:101AF000C16800E0E96889021AD4816809070FD437
:101B0000416821F060014160206C20F48050206425
:101B1000206CC0050CD4206C40F00100206407E06C
:101B2000206C40F010002064606C40F001006064A4
:101B30002046FFF71EFD21686020086020680168CC
:101B400009060CD54068000609D5206C40F48030A9
:101B50002064204600F054F9216880200860206845
:101B60000168C9050DD54068C0050AD5206C40F450
:101B7000003020642046FFF7FEFC21684FF480709F
:101B800008602068016889050DD5406880050AD580
:101B9000206C40F4802020642046FFF7EDFC216893
:101BA0004FF40070086021680868C0061BD54868BB
:101BB000C00618D5606B012807D017488268D20686
:101BC00027D0806800F4404050B1206C40F4806021
:101BD0002064606C40F0020060642046FFF7E8FE7D
:101BE00021681020086020680168490510D5416807
:101BF00049050DD5216C41F480412164616C41F0AF
:101C0000080161644FF4806101602046FFF7B2FC77
:101C100070BDC868C007D7E700030050F0B54FF0AB
:101C2000000595B004002F462E46009505D0206C87
:101C3000C00648D4206C18B133E0012015B0F0BDC7
:101C40006664E664A66484F83C60204600F0DAF836
:101C500020688068C00024D42046FEF767FF054650
:101C6000206CC0061DD4E5B9206C20F4885040F0EB
:101C7000020020642068816821F040518160206862
:101C8000816841F080518160574858490068B0FB35
:101C9000F1F000EB8000400000E0401E00900028C2
:101CA000FBD120688168C90002D5806880000AD510
:101CB000206C20F0020040F010002064606C40F0C6
:101CC000010060640125206CC0067DD4002D7BD10D
:101CD0002068816849077ED4216C21F4807141F02D
:101CE0000201216442494FF0A042904200D1414A92
:101CF0000092826802F00302012A02D10068C00744
:101D000010D1009840B1806800F00300012803D191
:101D100000980068C00705D18868626820F44030E8
:101D200010438860D4E902100843616B012902D096
:101D30004FF4805200E00022617E42EA41321043BB
:101D400094F820203843012A0AD1A9B1216C21F04E
:101D5000020141F020012164616C41F001016164E4
:101D6000A16A012902D0E26A1143084321688A6806
:101D700012F00C0F08D013E0A18C1F4A02EB414176
:101D8000014341F48030EBE7CA6844F202039A430E
:101D9000CA60217E94F83020890341EA4201084359
:101DA0002168CA68154B1A400243CA60206901289D
:101DB0002068016B21F00F0102D1E269521E11432C
:101DC00001636664206C00E005E020F0020040F052
:101DD0000100206406E0206C20F0020040F01000BA
:101DE00020640125284629E75808002040420F00BA
:101DF00000030050000100500000FEFF07C0F0FF8C
:101E0000704700002DE9F04786B00546142168466A
:101E1000FEF790FA3C4AD5F800C00024106803276A
:101E200080263A49401C4FF090434FF400794FF41C
:101E3000006ABCF1A04F07D0DFF8D480C44533D18D
:101E40001060012833D03AE01060012807D14869BA
:101E500040F080504861486900F080500590486922
:101E600040F4003048614869694600F4003005904C
:101E70000720CDE900070294184600F0F1FD264F37
:101E80002448E7E802048014A7E8500667E8064003
:101E9000214832E0AF630022052112207D6201F06B
:101EA000C1F9122001F0B0F906B0BDE8F087486929
:101EB00040F080504861486900F0805005904869C2
:101EC00040F4003048614869694600F400300590EC
:101ED0005020CDE900070294184600F0C1FD0E4FD6
:101EE0000C4844371430E7E802044FF40050A7E8E8
:101EF000500667E806400848443000F08DFC002892
:101F0000C8D0FFF7BAF8C5E720080020001002404B
:101F10000001005008000240B40A00202DE9F047FB
:101F20000446006890468946806840076ED494F85D
:101F30003C0001280CD001204FF0A04684F83C0062
:101F4000D6F808034FF00007C00604D0012507E0CB
:101F50000220BDE8F0872046FEF71AFE050002D0F9
:101F600084F83C7053E0206C40F60161884340F4F3
:101F700080702064D6F80803C00602D02068B04202
:101F800006D1206C20F4801020642068C06807E02F
:101F9000216C41F4801121641E49884208D1F06807
:101FA000800105D5206C20F4005040F4805020645E
:101FB000206CC00404D5606C20F00600606400E072
:101FC000676484F83C70A16B13488862A16B134866
:101FD000C862A16B1248086321681C200860206851
:101FE000416841F0100141602068C16841F0010181
:101FF000C160216843464A464031A06B00F033FC83
:102000002068816841F00401816000E002252846D3
:102010009FE7000000010050CD0A0008270B0008D0
:10202000110B000890F82020012A07D0022A05D0C1
:10203000416A41F480214162012070470068426991
:102040000A43426100207047F0B590F820500468C0
:10205000A468012D05D0022D03D0416A41F48021EE
:1020600053E014F0406F01D1E5004BD5C4F3016497
:10207000022C03D9416A41F4000146E00125A54044
:102080001D608D684FF4C0739DB1CE6835434E68B6
:1020900045EAC605066803EB0417F5514FF4C2750F
:1020A000076805EB04150E697E51097D012905D0ED
:1020B00009E00E88CD6845EA4655EBE701684E59C0
:1020C00046F480764E511179D2F805504FF4C67619
:1020D00041EA0525016806EB04168D511178D2F806
:1020E00001204FF4C47541EA0221026805EB041592
:1020F0005151006803EB0411425842F00102425072
:102100000020F0BD416A41F4001141620120F0BDA0
:1021100010B590F820300268012B07D0022B05D0B3
:10212000416A41F480214162012010BDD2F80002D1
:1021300040F00100C2F80002087D00F01F030120FA
:102140009840D2F81C328343C2F81C32CB69B3B931
:10215000D2F80C328343C2F80C328C894B6864F39A
:102160001F434C6902EBC404C4F840320C890B686D
:1021700064F31F434C6902EBC404C4F84432CB69D6
:10218000012B16D1D2F80C320343C2F80C320C8862
:102190004B6864F31F434C6902EBC404C4F840323B
:1021A0000C89CB6864F31F434C6902EBC404C4F888
:1021B00044328B69002BD2F804320FD053EA00036B
:1021C000C2F804320B69002BD2F8143208D0034352
:1021D000C2F81432096A012904D008E08343EFE70A
:1021E0008343F5E7D2F81C120143C2F81C12D2F85F
:1021F000000220F00100C2F80002002010BD70476C
:1022000030B590F82040012C05D0022C03D0416A53
:1022100041F480215DE00468002955D02469A407B9
:1022200054D04FF4D874056804EB01142D5915F0FF
:102230000405956005682D594ED0ED085560056878
:102240002C5904F00204D4604FF4DA74056804EBEE
:1022500001142D5905F00F05156105682D59C5F3B9
:102260000725956105682C59240C54614FF4DC72E4
:10227000046802EB0112A4581C700468A458240AD4
:102280005C700468A458240C9C700468A258120E58
:10229000DA704FF4DE72046802EB0112A4581C716C
:1022A0000468A458240A5C710468A458240C9C7126
:1022B0000468A258120EDA71006881B1016941F018
:1022C00020010161002030BDE468A8E7416A41F4C3
:1022D00000114162012030BD6D0D1560AFE7C1688E
:1022E00041F02001C160EDE72DE9F05F054600688F
:1022F00000244669D0F804908768D0F80CB0D0F874
:1023000010A0D0F81880F10748D0F90714D00121A7
:102310008160B80703D5284600F0FFF90CE0780784
:1023200002D54FF4006407E0380702D54FF480541B
:1023300002E0284600F0F0F9F80516D529684FF4B8
:1023400080708860B80503D5284600F0E8F90CE0F5
:10235000780502D544F4005407E0380502D544F46A
:10236000804402E0284600F0D9F9F80316D5296820
:102370004FF480308860B80303D5284600F0D1F9C7
:102380000CE0780302D544F4004407E0380302D59A
:1023900044F4803402E0284600F0C2F9300707D543
:1023A0005FEACB6004D52968102044F40074C8604B
:1023B00070074FF0080707D55FEA0B7004D528684F
:1023C000C760284600F056F9B00706D52868C068EF
:1023D000800702D0284600F04FF9700607D55FEA63
:1023E000CA6004D52968102044F480640861B006EE
:1023F00007D55FEA0A7004D528680761284600F00F
:102400005BF9F00606D528680069800702D02846E7
:1024100000F053F9B00308D55FEAC96005D5296813
:1024200010204860284600F049F9F00307D55FEA1C
:10243000097004D528684760284600F073F9300415
:1024400046D55FEA497040D5F00504D55FEAC8700B
:1024500001D044F00104B00504D55FEA887001D5CD
:1024600044F00204700504D55FEA487001D544F0D9
:102470000404300529D518F0700F26D008F070003C
:10248000402815D006DC102809D020280AD0302892
:1024900016D10AE050280ED0602811D10EE044F089
:1024A00008040DE044F010040AE044F0200407E0C2
:1024B00044F0400404E044F0800401E044F48074FB
:1024C0002868816921F070018161296804204860D1
:1024D000002C05D0686A204368622846FFF78FFE0B
:1024E000BDE8F09F70B5040003D094F8200010B14F
:1024F00004E0012070BD204600F082F820680168E9
:1025000021F00201016000F077FB0546052604E09A
:1025100000F072FB401B0A2811D820684068800731
:10252000F6D42068016841F00101016000F064FB0D
:1025300005460BE000F060FB401B0A2806D9606AE4
:1025400040F40030606284F82060D2E72068406880
:10255000C007EFD0207E0128206801683DD021F01F
:1025600080010160607E01282068016838D021F078
:1025700040010160A07E01282068016833D021F06D
:1025800020010160E07E0128206801682ED041F022
:1025900010010160207F01282068016829D021F006
:1025A00008010160607F01282068016824D021F0C3
:1025B00004010160D4E902010843D4E90412114383
:1025C00008436168491E08432168C86100206062B1
:1025D000012084F82000002070BD41F08001C0E798
:1025E00041F04001C5E741F02001CAE721F01001A8
:1025F000CFE741F00801D4E741F00401D9E700003A
:1026000010B586B0044614216846FDF793FE1749BD
:102610002068884227D11648C16941F00071C16124
:10262000C16901F000710591416941F400314161D6
:102630004069694600F4003005904FF4C0500090A6
:1026400002200190002002900320039009200490B2
:10265000C00600F005FA00220621142000F0E2FD79
:10266000142000F0D1FD06B010BD00000064004051
:10267000001002407047000010B504460B4B0C4A96
:102680000021FFF7BDFD09490A4A491F481D02F014
:1026900093FA002809D0054B0549093B20461A1D2D
:1026A000BDE810401839FFF7CFBC10BD0D00002069
:1026B000D80800201C0900207047704770470000B0
:1026C00070B5044690F82000012804D0606A40F4F8
:1026D0000020606218E0022084F820002068016871
:1026E00021F00101016000F087FA05460EE000BF0D
:1026F00000F082FA401B0A2808D9606A40F40030D2
:102700006062052084F82000012070BD20684068C8
:10271000C007EDD1606270BD704770477047704769
:1027200070477047704710B590F8211000240229B7
:1027300003D004218163012418E001680A6822F0B3
:102740000E020A6001680A6822F001020A6090F82D
:102750004020C36B012101FA02F25A6080F8211077
:10276000002180F82010416B01B18847204610BD40
:10277000F0B4C16B0D6801680C68066C042202FAA3
:1027800006F32B420FD063070DD50B689B0603D4CD
:102790000B6823F004030B6090F840108A40C16B73
:1027A0004A60C16A1BE0022303FA06F72F424FF08A
:1027B000000C4FF0010216D0A70714D50C68A40630
:1027C00005D40C6824F00A040C6080F8212090F8ED
:1027D00040108B40C16B4B6080F820C0816A00299B
:1027E00018D0F0BC08470823B3402B4212D023076F
:1027F00010D50B6823F00E030B6090F84010C36BEC
:1028000002FA01F15960826380F8212080F820C02B
:10281000016BE4E7F0BC704770B5040021D00220E2
:1028200084F821002268116843F6F0708143D4E9EE
:1028300001031843D4E903352B4318436369184354
:10284000A3691843E3691843084310602046FEF764
:10285000D5FB0020A063012184F8211084F820001A
:1028600070BD012070BD70B5044690F820000025B1
:1028700001280CD0012084F8200094F82160002069
:10288000012E06D084F820000225284670BD0220C3
:1028900070BD022684F82160A0632068066826F0D7
:1028A000010606602046FEF7B9FBE06A00282068B2
:1028B000016802D041F00E0106E041F00A0101601A
:1028C0002068016821F0040101602068016841F07E
:1028D00001010160D9E7000070B5044600F08CF9F1
:1028E0000546601C02D004480078044400F084F9D6
:1028F000401BA042FAD370BD340800202DE9F047F8
:10290000054626480F460126017E01290FD00121E8
:10291000814601762868DFF888804CF2503401281F
:1029200008D0A2462046FEF7F5FBA0B130E0022019
:10293000BDE8F0872046FEF7EDFB00BBFEF79EFBEF
:102940002046FEF7E7FBD8F81010064621F00401F8
:10295000C8F810101CE04FF0FF3038606C6811E0D0
:102960002046FEF79DFB5046FEF7D4FBD8F810102A
:10297000060021F00201C8F8101001D03C6007E009
:1029800004F50064D5E9010100EBC120A042E7D8BD
:10299000002189F818103046CAE700001012002004
:1029A000002002400348016941F0800101610020DC
:1029B00070470000002002402DE9F05F07461C48E8
:1029C00088460024017E15461E46012909D00121B2
:1029D000814601764CF2503A5046FEF79BFB18B107
:1029E00022E00220BDE8F09F012F02D0022F00D08C
:1029F0000427D346DFF83CA0220128463146FDF7E4
:102A000070FC81B208EB4400FEF75CFB5846FEF711
:102A100081FBDAF8102022F00102CAF8102018B960
:102A2000641CE4B2BC42E7D3002289F81820D9E73D
:102A30001012002000200240064900200A691206F8
:102A400007D5054A4A60054A4A600969090600D562
:102A5000012070470020024023016745AB89EFCD7C
:102A60002DE9F84FDFF860B100234FF0010C4FF073
:102A7000030A4FF00F090BF1040E9DE00CFA03F668
:102A8000344022007ED04C68022C01D0122C0ED192
:102A9000DC0800EB8408D8F820405D07EF0E09FA47
:102AA00007F5AC430D69BD402543C8F820500768C1
:102AB0005D0091F804800AFA05F408F00308A743C2
:102AC00008FA05F848EA0708C0F800804F68012FA7
:102AD00005D0022F03D0112F01D0122F11D18768FA
:102AE000D1F80C80A74308FA05F848EA0708C0F8AF
:102AF00008804768B7430E79C6F300169E403E43F0
:102B00004660C668A6438C68AC403443C4604C68D9
:102B1000E40050D52D4CA56945F00105A561A469D7
:102B200023F0030504F001040094294C2E19B46825
:102B30009D072F0F09FA07F5AC43B0F1904F04D071
:102B4000244DA84203D101250CE000250AE0224DC6
:102B5000A84201D1022505E0204DA84201D103255C
:102B600000E00525BD402543B560DBF800405D462B
:102B70004E689443F60300D514432C607546DEF886
:102B8000004000E017E04E689443B60300D51443BC
:102B90002C600D4D08352C684E689443F60200D524
:102BA00014432C60084D0C352C684E689443B602D3
:102BB00000D514432C605B1C0A681446DA407FF48D
:102BC0005DAFBDE8F88F0000000401400010024036
:102BD000000001400004004800080048000C0048C4
:102BE00042690A4200D00904816170470AB18161DB
:102BF000704781627047000001488068704700009C
:102C00003408002090F8C020012A1FD0012280F84B
:102C1000C020022280F8C1204A1C19D00268D2F8D4
:102C2000CC3343F00203C2F8CC330268D2F8CC3381
:102C300023F00C030B43C2F8CC330068D0F8CC135C
:102C400041F00101C0F8CC1300207047022070470A
:102C50000168D1F8CC2322F00202C1F8CC23ECE7C2
:102C600038B5040054D0022084F8C1000025C4F80F
:102C7000C450C4F8C850C4F8CC50C4F8D050C4F8FC
:102C8000D450C4F8D850207AC0071BD021492068FE
:102C9000884208D12048816941F0005181618069F2
:102CA00000F0005000902168086820F44042208A1B
:102CB00000F44040104320F44052A08A00F44050F9
:102CC00010430860204600F029F8207A800708D5D4
:102CD0002168086820F44072A08900F44070104315
:102CE0000860012084F8C10084F8C0505FF0000142
:102CF000C1EBC10004EB8000491C8561C561056220
:102D000045628562C9B205630529F1D9002038BD45
:102D1000012038BD007401400010024008B5006871
:102D20000649884208D10648816941F00051816115
:102D3000806900F00050009008BD00000074014060
:102D40000010024010B586B0044614216846FDF715
:102D5000F1FA0F492068884218D10E48416941F4C0
:102D6000003141614069694600F4003005904FF43C
:102D7000E060009002200190002002900320039068
:102D80000D2004904FF09040FFF76AFE06B010BD92
:102D9000007401400010024070B50D460446FFF774
:102DA0002BFF064607E0681C05D0FFF725FF801BB8
:102DB000A8420DD865B12068D0F88803C043C0038D
:102DC000F1D4012084F8C100002084F8C00070BD57
:102DD000072084F8C100032070BD70B590F8C130A1
:102DE000022B23D0022380F8C130052920D0802374
:102DF000046803EBC115635923F007069368334356
:102E000023F01806D368334363519425046805EB17
:102E1000C115136863519824036804EBC11152680B
:102E20005A50012180F8C110002070BD022070BDF1
:102E30000368196821F007049168214321F0180400
:102E4000D1682143196003681168596151680268AB
:102E50009161E6E72DE9F04F90F8C140022C25D0B2
:102E600090F8C040012C21D04FF0010980F8C090AB
:102E7000022480F8C14000274FF0070C052918D024
:102E80009C2404EBC116012A39D08024A8254FF4D4
:102E9000005A4FF4405B05EBC11504EBC114022A44
:102EA0002FD0042A45D0082A0BD144E00220BDE8E7
:102EB000F08F012A0AD0022A0CD0042A0ED0082A48
:102EC00010D080F8C1C080F8C0700EE002681968A8
:102ED000D1610AE002681968516206E00268196867
:102EE000916202E002681968D16290F8C110072966
:102EF00048D080F8C19080F8C0700020D7E71968EA
:102F000035E04FF0A408D0F800C008EBC1111A68F2
:102F10004CF801205968002901680A5922F44052EE
:102F20002ED00A5101680A59D3F804C042EA0C02B3
:102F300018E0196821E04FF0AC08D0F800C008EBA9
:102F4000C1111A684CF801205968002901680A5912
:102F500022F4404214D00A5101680A59D3F804C03F
:102F600042EA8C020A515968514503D199680268B6
:102F70009151BAE75945B8D1996802685151B4E7FF
:102F80000A51B2E7012092E7F0B590F8C020012A7B
:102F900038D0012480F8C040022280F8C1200268A5
:102FA000D2F8903345682B43C2F89033CA0305D555
:102FB0000268D368D0F8AC502B43D3600022DFF80E
:102FC00048C08C255CF822300B420CD0066805EB1B
:102FD000C213F758C2EBC20E00EB8E0EDEF820E0F3
:102FE00047EA0E07F750521CD2B2052AEAD302680C
:102FF00013680B43136080F8C140002180F8C010B3
:103000000846F0BD0220F0BD4008002070B504461F
:1030100090F8C100022811D094F8C00001280ED009
:10302000012584F8C050022084F8C100204601F038
:103030008CF984F8C150002084F8C00070BD0220D3
:1030400070BD10B590F8C020012A10D0012200F800
:10305000C02F0223437050F8C03CD3F894430C4374
:10306000C3F89443427000210170084610BD02204D
:1030700010BD2DE9F041054690F8C10014460E46FA
:10308000022825D095F8C000012823D0012785F813
:10309000C070022085F8C100052E1DD0284601F021
:1030A000BBF9C6EBC60005EB8000216801626168D0
:1030B0004162A1688162E168C162216901633146B0
:1030C000284601F015F985F8C170002085F8C00088
:1030D000BDE8F0810220FBE728680168D0F8A02352
:1030E00021F020036169194321F40063A1691943A8
:1030F00021F48063E169194321F0C063216A194317
:1031000021F00063616A1943A36A21F0404141EA5A
:10311000830121F00053216B194322F48033E26ACA
:1031200001601A432868C0F8A023BAE70248816802
:10313000027811448160704734080020074810B5B8
:10314000016841F010010160032000F08BF80020BD
:1031500000F006F800F03EF8002010BD002002400C
:1031600000B5014687B00022372000F05BF8372019
:1031700000F04AF81348C16941F02001C161C069FB
:1031800005A900F020000690684600F0E5F900F07F
:1031900003FA0D494000B0FBF1F10D480B4A491EFE
:1031A0000260416040F2E7320021C0E90321816002
:1031B00000F07AFD10B1012007B000BD044800F016
:1031C000A3FDF9E70010024040420F000014004048
:1031D000940E00200B4882B0816941F001018161A9
:1031E000816901F001010091C16941F08051C16123
:1031F000C069002200F0805000900F21901E02B0A4
:1032000000F010B800100240002809DB00F01F0297
:10321000012191404009800000F1E020C0F8001138
:1032200070470000F0B40E4B1B680C46C3F302233A
:10323000C3F10705042D00D90425191D072901D262
:10324000002300E0DB1E012606FA05F1491E21409D
:1032500099409E40761E16403143F0BC02F0D6BA2B
:103260000CED00E0064900F0070208684FF6FF0386
:10327000184040EA0220034A1043086070470000EB
:103280000CED00E00000FA052DE9F84F0446006857
:103290005C4DC0036FD5E8690026C00008D4E8691A
:1032A00040F08050E861E869012600F0805000900D
:1032B00055480168C90512D40168804641F48071FF
:1032C0000160FFF799FC074605E000BFFFF794FC9B
:1032D000C01B642835D8D8F80000C005F6D5286A88
:1032E00010F4407053D0A18801F4407181424ED057
:1032F000286A4FF4803191FAA1F2B2FA82F2970073
:10330000424A4FF00108174420F44070C7F8008487
:1033100091FAA1F1B1FA81F102EB81010023C1F828
:1033200000342862C00732D0FFF766FC074641F23E
:10333000883A4FF0020907E0FFF75EFCC11B5145D8
:1033400002D90320BDE8F88F99FAA9F1B1FA81F109
:1033500041F040014846B8EB511F01D129680CE00B
:1033600090FAA0F1B1FA81F141F04001B0EB511FA8
:1033700002D1296A01E015E0696A99FAA9F0B0FA68
:1033800080F000F01F0008FA00F21142D4D0286A41
:10339000616820F44070084328621EB1E86920F09B
:1033A0008050E8612078C00705D0286BA16820F024
:1033B0000300084328632078800605D5286BE16860
:1033C00020F01000084328632078000605D5E86A3D
:1033D000216920F4F8700843E8622088C00405D50C
:1033E000286B616920F480700843286320884004BA
:1033F00005D5286BA16920F480500843286300207C
:10340000A0E70000001002400070004000004242AF
:103410002DE9F0470F46050069D04A4E306800F0AC
:103420000700B84209D2306820F007003843306006
:10343000306800F00700B84259D12878424C800724
:1034400005D56068A96820F0F0000843606028781E
:10345000C0073DD06968012001290DD0022923D081
:103460005FF0020393FAA3F2B2FA82F242F0200272
:10347000520904D0226803E04FF40033F2E7626A95
:1034800093FAA3F3B3FA83F303F01F0398400242C5
:103490002DD0606820F0030008436060FFF7ACFBAC
:1034A000804641F288390CE04FF00073DAE700BF44
:1034B000FFF7A2FBA0EB0801494502D90320BDE8B4
:1034C000F0876068696800F00C00B0EB810FEFD105
:1034D000306800F00700B8420BD9306820F00700D0
:1034E00038433060306800F00700B84201D0012056
:1034F000E5E72878400705D56068E96820F4E060D2
:10350000084360602878000706D56068296920F4C0
:10351000605040EAC100606000F06EF86168F0221F
:1035200092FAA2F201F0F001B2FA82F2D140074A17
:10353000515CC8400649086006480068FFF710FE65
:103540000020BCE70020024000100240747D00080B
:1035500058080020380800200F2202600C4A5368E7
:1035600003F003034360536803F0F0038360536880
:1035700003F4E063C36052684FF4E06303EAD202ED
:1035800002610448006800F007000860704700000E
:1035900000100240002002400848094900684968BC
:1035A0004FF4E06292FAA2F201F4E061B2FA82F220
:1035B000D140044A515CC8407047000058080020C0
:1035C00000100240847D00080848094900684968E5
:1035D0004FF4605292FAA2F201F46051B2FA82F210
:1035E000D140044A515CC840704700005808002090
:1035F00000100240847D0008164A10B55168164834
:1036000001F00C03042B20D0082B1ED14FF47014B2
:1036100094FAA4F401F47013B4FA84F4E3400F4C68
:10362000D26AE45C0F2393FAA3F302F00F02B3FA19
:1036300083F3DA40094B1033C9039A5C06D50023A3
:103640001946FCF71DFEA0FB040110BD0448A4FBB5
:10365000000110BD0010024000127A00547D0008E5
:1036600000093D002DE9F84F050071D02878FC4E87
:10367000C0074FF0010425D070686704C0F38100D3
:10368000012807D07068C0F3810002281BD1706840
:10369000C00318D597FAA7F0B0FA80F040F02000E8
:1036A000400901D0306800E0706A97FAA7F1B1FADA
:1036B00081F101F01F0104FA01F1084265D0686848
:1036C0000028D2D061E06868B0F5803F0BD010B11F
:1036D000B0F5A02F17D0306820F48030306030680B
:1036E00020F4802002E0306840F480303060F06ADE
:1036F000A96820F00F000843F062686820B3FFF764
:103700007BFA80460AE0306840F480203060EAE7C7
:10371000FFF772FAA0EB0800642871D897FAA7F0B7
:10372000B0FA80F040F02000400901D0306800E09D
:10373000706A97FAA7F1B1FA81F101F01F0104FA5A
:1037400001F10842E4D020E0FFF756FA804607E096
:10375000C2E000BFFFF750FAA0EB08006428DCD8F5
:1037600097FAA7F0B0FA80F040F02000400901D0AD
:10377000306800E0706A97FAA7F1B1FA81F101F0C0
:103780001F0104FA01F10842E4D12878DFF8D4825D
:1037900080074FF0000A4FF0020730D570684FF0F5
:1037A000F80B10F00C0F07D07068C0F381000228EE
:1037B00027D17068C00324D497FAA7F0B0FA80F03C
:1037C00040F02000400901D0306800E0706A97FAAC
:1037D000A7F1B1FA81F101F01F0104FA01F10842E9
:1037E00002D02869012877D130689BFAABF220F02B
:1037F000F8016869B2FA82F29040014331605AE000
:1038000064E1286988B394FAA4F0B0FA80F048F82B
:103810002040FFF7F1F9814606E000BFFFF7ECF921
:10382000A0EB090002289AD897FAA7F0B0FA80F026
:1038300040F02000400901D0306800E0706A97FA3B
:10384000A7F1B1FA81F101F01F0104FA01F1084278
:10385000E4D030689BFAABF26969B2FA82F220F0E8
:10386000F80091400843306025E0FFE794FAA4F0A7
:10387000B0FA80F048F820A0FFF7BEF9814605E0D5
:10388000FFF7BAF9A0EB09000228CCD897FAA7F005
:10389000B0FA80F040F02000400901D0306800E02C
:1038A000706A97FAA7F1B1FA81F101F01F0104FAE9
:1038B00001F10842E4D1287800076CD5A869A8B3C3
:1038C00094FAA4F0B0FA80F008EB8000C0F88044CD
:1038D000FFF792F9814607E0A4E100BFFFF78CF9FA
:1038E000A0EB090002289ED897FAA7F0B0FA80F062
:1038F00040F06000B4EB501F01D130680BE097FA44
:10390000A7F0B0FA80F040F06000B7EB501F01D193
:10391000306A00E0706A97FAA7F1B1FA81F101F01C
:103920001F0104FA01F21042D8D034E0FFE794FA04
:10393000A4F1B1FA81F108EB8101C1F880A4FFF78D
:103940005BF9814606E000BFFFF756F9A0EB0900DE
:1039500002289AD897FAA7F0B0FA80F040F06000F9
:10396000B4EB501F01D130680BE097FAA7F0B0FA22
:1039700080F040F06000B7EB501F01D1306A00E0EA
:10398000706A97FAA7F1B1FA81F101F01F0104FA08
:1039900001F21042D8D12878400768D5F0694FF07D
:1039A0000009C00009D4F06940F08050F061F0696E
:1039B0004FF0010900F0805000902B480168C905C4
:1039C00012D4016841F480710160FFF715F9834654
:1039D00006E000BFFFF710F9A0EB0B00642875D8D4
:1039E00021480068C005F5D5E86801280AD008B16B
:1039F000052811D0306A20F001003062306A20F0D2
:103A0000040002E0306A40F001003062E86868B308
:103A1000FFF7F2F883460DE0306A40F004003062B0
:103A2000F0E700BFFFF7E8F8A0EB0B0141F28830A8
:103A300081424BD897FAA7F0B0FA80F040F04000EE
:103A4000B4EB501F01D1306813E097FAA7F0B0FA39
:103A500080F040F04000B7EB501F09D1306A08E019
:103A60000010024000004242007000400CE040E0C4
:103A7000706A97FAA7F1B1FA81F101F01F0104FA17
:103A800001F21042CED02DE0FFF7B6F8834607E0F2
:103A9000FFF7B2F8A0EB0B0141F28830814215D854
:103AA00097FAA7F0B0FA80F040F04000B4EB501F56
:103AB00001D130680CE097FAA7F0B0FA80F040F03E
:103AC0004000B7EB501F02D1306A01E083E0706A1A
:103AD00097FAA7F1B1FA81F101F01F0104FA01F29E
:103AE0001042D5D1B9F1000F03D0F06920F0805019
:103AF000F061E86980B37168C1F38101022977D070
:103B00004FF080714F000228504609D091FAA1F180
:103B1000B1FA81F148F82100FFF76EF805465DE043
:103B2000894691FAA1F1B1FA81F1C24648F8210023
:103B3000FFF762F8804605E0FFF75EF8A0EB0800AB
:103B4000022848D897FAA7F0B0FA80F040F0200099
:103B5000400902D0306801E066E0706A97FAA7F188
:103B6000B1FA81F101F01F0104FA01F10842E3D139
:103B7000D5E908100843716821F474110843706096
:103B800099FAA9F0B0FA80F04AF82040FFF734F82B
:103B9000054604E0FFF730F8401B02281BD897FACF
:103BA000A7F0B0FA80F040F02000400901D0306862
:103BB00000E0706A97FAA7F1B1FA81F101F01F01F4
:103BC00004FA01F10842E5D02EE000BFFFF714F837
:103BD000401B022802D90320BDE8F88F97FAA7F00E
:103BE000B0FA80F040F02000400902D0306801E0D7
:103BF0000BE0706A97FAA7F1B1FA81F101F01F01A9
:103C000004FA01F10842E1D10EE00128E4D0706825
:103C10002A6A00F48031914204D1696A00F470107C
:103C2000884201D00120D7E70020D5E770477047D0
:103C300070470000F0B590F83C20012A2CD00124F8
:103C400080F83C40022280F83D2003685A689D6855
:103C5000124EB34203D122F470074A683A4322F06D
:103C600070070A683A435A600268B24208D0B2F15B
:103C7000804F05D00A4B9A4202D00A4B9A4204D197
:103C8000896825F080031943916080F83D40002148
:103C900080F83C100846F0BD0220F0BD002C014029
:103CA000000400400040014010B5040003D094F827
:103CB0003D0010B107E0012010BD002084F83C0059
:103CC000204600F00DF8022084F83D00211D2068F8
:103CD00001F0D8FA012084F83D00002010BD00005A
:103CE00008B500680649884208D10648C16941F014
:103CF0001001C161C06900F01000009008BD000013
:103D000000100040001002400168CA6842F0010241
:103D1000CA6001688868064A1040062806D0B0F5D7
:103D2000803F03D0086840F0010008600020704721
:103D300007000100704770B50446006801694FF044
:103D40000005C943890715D4C168C943890711D43F
:103D5000E91E0161012020772068806980072046E4
:103D600002D0FFF7E7FF04E000F0A7F8204600F0DC
:103D7000A5F8257720680169C943490717D4C168A8
:103D8000C943490713D46FF0040101610220207771
:103D90002068806910F4407F204602D0FFF7CAFFF8
:103DA00004E000F08AF8204600F088F825772068C3
:103DB0000169C943090716D4C168C943090712D468
:103DC0006FF008010161042020772068C069800736
:103DD000204602D0FFF7AEFF04E000F06EF8204668
:103DE00000F06CF8257720680169C943C90617D42B
:103DF000C168C943C90613D46FF0100101610820DE
:103E000020772068C06910F4407F204602D0FFF779
:103E100091FF04E000F051F8204600F04FF82577BC
:103E200020680169C943C90708D1C168C943C907E6
:103E300004D1891E0161204600F042F82068016922
:103E4000C943090609D4C168C943090605D46FF0FE
:103E5000800101612046FFF7EAFE20680169C9433D
:103E6000C90509D4C168C943090605D46FF4807136
:103E700001612046FFF7DAFE20680169C94349065F
:103E800009D4C168C943490605D46FF040010161F6
:103E9000204600F01FF820680169C94389060BD449
:103EA000C168C943890607D46FF02001016120462B
:103EB000BDE87040FFF7BCBE70BD704770470000A2
:103EC00000680349884201D1FFF730B9704700000C
:103ED0000014004070477047704700002DE9F04122
:103EE00002680446D0691168936840F60F052842BD
:103EF0004FF0000505D186067BD58E0679D5216E5B
:103F000088E003F0010601F49077374371D0C707CA
:103F100007D0CF0505D501271762E26F42F00102F5
:103F2000E267820708D5DA0706D0276802223A62DC
:103F3000E26F42F00402E267420708D5DA0706D0D2
:103F4000236804221A62E26F42F00202E26702076B
:103F50000AD501F02002324306D0236808221A62F3
:103F6000E26F42F00802E267020509D54A0107D56F
:103F700023684FF400621A62E26F42F02002E267A7
:103F8000E26F002A2ED0800605D5880603D5216E63
:103F900009B120468847E06F21688968490602D444
:103FA00010F0280F20D0204601F08AFA206881689E
:103FB000490614D5816821F040018160E06E70B13E
:103FC0001D494163E06EFEF7AEFB00280AD0E06EAB
:103FD000416B00E02046BDE8F041084709E020467B
:103FE000FFF77AFFBDE8F0812046FFF775FFE56730
:103FF000F8E7C60209D55B0207D54FF480101062BE
:104000002046BDE8F041FFF766BF030605D50B0665
:1040100003D5616E0029DDD1E4E74006E2D548060C
:10402000E0D51168204621F0400111602021616730
:10403000656600F05BF9D5E72D54000810B5040063
:1040400002D0606F10B107E0012010BD002084F89D
:104050007000204600F026F8242060672068016880
:1040600021F001010160204601F09CFA0128ECD00A
:10407000606A10B1204601F049F92068416821F4D6
:10408000904141602068816821F02A0181602068A8
:10409000016841F0010101602046BDE8104001F0D7
:1040A00099B90000F0B587B0064614216846FCF7C0
:1040B00041F92A49306888424ED12948816941F442
:1040C00080418161816901F480410591416941F438
:1040D000802141614069002400F480200590C020C7
:1040E00000900220CDE901040320039007200490F2
:1040F00069461C48FEF7B4FC1C4D1B488027C5E9E7
:104100000004C5E902472C616C61AC612846EC6192
:10411000FEF782FB08B1FCF7B0FFF5666E62134D47
:1041200011484435143801C5102091C50F4845F891
:10413000104944306C61AC61EC61FEF76DFB08B175
:10414000FCF79BFFB5660022062125206E62FFF773
:1041500069F82520FFF758F807B0F0BD0038014096
:10416000001002400004004858000240940F002054
:1041700030B5836F202B4BD1B1B1AAB190F870301C
:10418000012B45D0012380F870304165A0F85820FC
:10419000A0F85A20002101661D038268FF23AA426D
:1041A00007D1026912B125E0012030BD40F2FF12B3
:1041B00026E07F24E2B1B2F1805F1ED0A0F85C104F
:1041C000C167222282670268936843F0010393600B
:1041D0008268AA4201D10269C2B10E4A026680F821
:1041E00070100068016841F490710160002030BDDA
:1041F000026942B9A0F85C30E2E702691AB13F22D5
:10420000A0F85C20DCE7A0F85C40D9E7024AE5E7CB
:10421000022030BD49550008EF54000810B504468F
:1042200000680B49884212D10B490A4A481D00F028
:10423000C3FC20B105220849204600F00FF80649CA
:1042400020460622BDE81040491DFFF791BF10BD72
:10425000003801401C0900200800002070B5044609
:10426000406F20283AD159B352B394F87000012816
:1042700034D0012084F87000E164A4F85020A4F840
:1042800052200025E56721206067A06ED0B1144957
:104290008162A16E13481346C862A16E124808637A
:1042A000A06E45632668E16C06F12802A06EFEF759
:1042B000DAFA38B11020E06784F870502020606787
:1042C000012070BD21684020086284F87050206889
:1042D000816841F080018160002070BD022070BDC6
:1042E00089540008B75400084154000870477047CB
:1042F000062911D2DFE801F00911171D2303006818
:10430000D0F8841341F0010104E00068D0F8841370
:1043100041F00201C0F8841370470068D0F884139C
:1043200041F00401F6E70068D0F8841341F0080179
:10433000F0E70068D0F8841341F01001EAE7006864
:10434000D0F8841341F02001E4E7F0B50024E4251F
:10435000076805EBC11657F806C0B82505EBC1156F
:104360007D59202A27D00CDC042A15D004DC012A30
:1043700012D0022A2BD11EE0082A1CD0102A26D1E6
:104380000AE0402A08D0802A15D0B2F5807F03D0F9
:10439000B2F5007F1BD10EE04FF0BC0E0EEBC11E3C
:1043A0005A6847F80E204FF0C00E07680EEBC11197
:1043B0009A687A500BE0C42404EBC1145A683A514D
:1043C000C827046807EBC1119A6862501024FE21C7
:1043D000A1401A682CEA010CA240D96842EA0C02FA
:1043E000A14011431A69D3F814C01746A2400A43EA
:1043F0000CFA04FC99694CEA020CA14041EA0C0158
:10440000082F06D1AA0504D4AA0102D4DA69A24071
:10441000114300688151F0BD2DE9F04F80240368FD
:1044200004EBC1169C5924F070449C5103689A46D1
:104430009D59E82404EBC114A64653F80490E424E3
:1044400004EBC114A3461C59D3F8A03325F0200770
:1044500055693D4325F4006795693D4325F4806720
:10446000D5693D4325F0C067156A3D4325F00067D7
:10447000556A3D4325F07047956A3D43176B25F417
:104480000035B7F1005F01D145F4003525F0400754
:10449000556BD2F848802F4327F4802C176D47EADC
:1044A0000C0727F0FC7748EA070892F8387029F0E3
:1044B0001F0C07F01F0747EA0C0727F0004CD76BCB
:1044C00047EA0C0725B924F4807C146C44EA0C04F8
:1044D000D2F844C0BCF5606F02D0BCF5F05F01D1EA
:1044E000402D03D124F4F0544CEA0404D56C052982
:1044F00021D2DFE801F003090F151B00D26A23F473
:10450000003343EA420316E0D26A23F4802343EAED
:10451000820310E0D26A23F4002343EAC2030AE0D4
:10452000D26A23F4801343EA021304E0D26A23F42C
:10453000001343EA42134AF80680066846F80E70F4
:10454000066846F80B40D424026804EBC1115550AC
:104550000068C0F8A033BDE8F08FFEE710B500F0AA
:10456000CBFD03210A48FEF76CFD04210848FEF745
:1045700068FD4FF400310648FEF706FD4FF4802138
:104580000348FEF701FDBDE8104000F0F9BD000052
:10459000B80D002070B506462DED028BB0EE408AB6
:1045A0009FED1A0AF0EE608A1446C0EE011A0D461D
:1045B00011EE900AFCF777F853EC182BFBF773FF1A
:1045C0009FED138B53EC182BFBF7C6FE41EC100B41
:1045D00051EC180B53EC102BFBF7D7FFFCF78EF8C0
:1045E00000EE100AF7EE000A94ED001A70EEC00A11
:1045F00060EE810A96ED001A40EE010AC5ED000A50
:10460000C4ED000ABDEC028B70BD000083F9223EB0
:10461000000000000000F03FF0B589B000240694CF
:104620000794182168460894FBF784FE22484FF04F
:10463000A0410125C0E9001405618460447680F83A
:104640002040C0E90A540326C661C46080F83040A7
:104650000427476104764463FDF7E0FA08B1FCF7EC
:104660000CFD06A914480694FCF788FF08B1FCF776
:1046700004FD0594CDE90274CDE900650494694612
:104680000D48FCF7EBFF08B1FCF7F7FC02200090A7
:10469000019069460848FCF7E1FF08B1FCF7EDFC22
:1046A000CDE9005669460448FCF7D8FF002801D040
:1046B000FCF7E3FC09B0F0BD140A002070B586B029
:1046C00018216846FBF736FE1B481A490024C0E94A
:1046D0000014012505618460447680F82040C0E91B
:1046E0000A540226C661C46080F83040042141614A
:1046F00004764463FDF792FA08B1FCF7BEFC00951E
:104700000394CDE90154049469460B480594FCF7E1
:10471000A5FF08B1FCF7B1FC0320CDE9000669460E
:104720000548FCF79BFF002801D0FCF7A6FC06B06B
:1047300070BD000000010050640A0020104810B550
:104740000E4901604821416000214FF08072C0E9AC
:1047500002124FF4A02202614FF4E002426101769E
:1047600041768176C17601774177FDF7BBFE00285F
:1047700003D0BDE81040FCF780BC10BD00640040D1
:104780003C0B0020154808B5416941F00101416129
:104790004069002200F00100009005210B20FEF787
:1047A00041FD0B20FEF730FD002205210C20FEF715
:1047B00039FD0C20FEF728FD002205210E20FEF712
:1047C00031FD0E20FEF720FD002205210F20FEF70F
:1047D00029FDBDE808400F20FEF716BD001002407D
:1047E00010B59CB01C2216496846FBF78AFD0021D3
:1047F000684602F068F8134C11491C2220601C31F5
:1048000007A8FBF77EFD002107A802F05CF80C4921
:1048100060601C2238310EA8FBF773FD00210EA842
:1048200002F051F80649A0601C22543115A8FBF78C
:1048300068FD002115A802F046F8E0601CB010BD2C
:10484000E47C0008240800202DE9F04186B0142102
:104850006846FBF76FFD1F48416941F480014161E3
:10486000416901F480010591416941F400314161E0
:10487000416901F400310591416941F480214161B0
:104880004069154F00F4802040F61804059000227E
:1048900021463846FEF7AAF97E014FF090480022E3
:1048A00031464046FEF7A2F90125CDE90045002436
:1048B0000294694638460394FEF7D2F80096CDE993
:1048C0000154694640460394FEF7CAF806B0BDE8B5
:1048D000F0810000001002400004004870B5A4B050
:1048E0000024209421942294542168462394FBF7B9
:1048F00021FD1D941E94202115A81F94FBF71AFD7D
:1049000064486349C0E900148460FEF7A9F908B15E
:10491000FCF7B3FB0C215F48FEF774F908B1FCF714
:10492000ACFB0A215B48FEF737FA08B1FCF7A5FBA0
:104930004FF42040CDE92004082520AA0021554845
:10494000CDE92245FEF749FA08B1FCF796FB009441
:10495000019401260294CDE9034605940694079438
:10496000089409940A940B940C940D940E940F944B
:1049700010941194129413946A460021454814949B
:10498000FEF777FB08B1FCF778FB0294CDE903460C
:104990006A4601213F48FEF76CFB08B1FCF76DFB4E
:1049A00064261DAB012200213A481D96FEF752FAFB
:1049B00008B1FCF762FB1E941DAB022200213548B2
:1049C0001F94FEF747FA08B1FCF757FB4FF49070BD
:1049D0001D901DAB022201211F942E48FEF73AFACA
:1049E00008B1FCF74AFB1DAB0422002129481D96A3
:1049F000FEF730FA08B1FCF740FB1DAB082200219E
:104A000024481F94FEF726FA08B1FCF736FB102065
:104A1000CDE91545CDE9170419941A941B9415ABEB
:104A2000012200211B481C94FEF7F0FA08B1FCF7A4
:104A300024FB15AB042201211648FEF7E7FA08B162
:104A4000FCF71BFB202016904020179015AB02228C
:104A500000211048FEF7DAFA08B1FCF70EFB20AA95
:104A600001210C48FEF7B9F908B1FCF706FB4FF439
:104A7000807001221D901DAB11460648FEF7EAF931
:104A800008B1FCF7FAFA0348FEF75CF924B070BDF0
:104A900000740140B80D00203EB500240E4800947B
:104AA00001940C49029401604721C0E901143221AC
:104AB0008461C160FFF7F8F808B1FCF7DEFA0094F2
:104AC000694605480294FFF7B5F8002801D0FCF7C5
:104AD000D4FA3EBD00100040D40E00200D4810B5A1
:104AE0000B4901604FF4E1314160002181600C22EB
:104AF000C160C0E904128161C16101624162FFF7D6
:104B00009DFA002803D0BDE81040FCF7B6BA10BDEE
:104B100000380140140F00202DE9F04106461546EB
:104B20000C4692ED200A10209FED1E1ADFED1E0AA2
:104B300001F0D4FD804695ED190A10209FED1B1A57
:104B4000DFED1B0A01F0CAFD074695ED060A1020AD
:104B5000B8EE081AF0EE080A01F0C0FD154B99787E
:104B6000217036B1012E08D0022E0CD0032E15D1A3
:104B70000CE0621C0021404602E0621C0121384624
:104B800000F01BFB0AE0621C0221F9E703206070C1
:104B900095F8B100A07095F8B000E0701878207119
:104BA000BDE8F0810000FAC40000FA4400000000F3
:104BB000DB0FC940180000202DE9F04FDFF82CB3BF
:104BC00014462DED048BA7B0002502789BF8023027
:104BD00023939A427DD0FC2A02D0FF2A06D0B3E06C
:104BE00040788BF8020000F0E5FDADE0D4F8AC00B1
:104BF0003034FBF758FD05460E46206FFBF753FD9A
:104C0000CDE91A01A06EFBF74EFDCDE91801E06E6B
:104C1000FBF749FDCDE91601E06DFBF744FDCDE959
:104C20001401A06DFBF73FFDCDE91201606EFBF7AB
:104C30003AFDCDE91001206EFBF735FDCDE90E01FF
:104C4000E06BFBF730FDCDE90C01A06BFBF72BFD12
:104C5000CDE90A01606BFBF726FDCDE90801E06CA8
:104C6000FBF721FDCDE90601206DFBF71CFDCDE929
:104C7000040154F8100CFBF716FDCDE9020154F8BD
:104C8000180CFBF710FDCDE9000154F8240CFBF7DC
:104C90000AFD81468A4654F8280CFBF704FD0746B6
:104CA000884654F82C0CFBF7FEFCCDE9245641EC69
:104CB000100B94F8810020AB9BF8002094F8801032
:104CC00083E80700DDE91A01CDE91E01DDE91801DD
:104CD00000E03FE0CDE91C01DDE91601CDE91A0154
:104CE000DDE91401CDE91801DDE91201CDE9160174
:104CF000DDE91001CDE91401DDE90E01CDE9120174
:104D0000DDE90C01CDE91001DDE90A01CDE90E0173
:104D1000DDE90801CDE90C01DDE90601CDE90A0173
:104D2000DDE90401CDE90801DDE90201CDE9060173
:104D3000DDE90001CDE904018DE8800753EC102B7B
:104D40006B482399FCF780F9002027B0BDEC048B59
:104D5000BDE8F08F437801229FED668A9FED669A49
:104D6000DFED668A072B7AD2DFE803F0040A172406
:104D70003368B00080782246FFF7CEFE0125B2E00E
:104D80004088102140BADFED5E0A9FED5E0A02F016
:104D90009EF884ED1F0A312018E04088102140BAA7
:104DA0009FED590AF0EE400A02F091F884ED1B0ADB
:104DB00032200BE04088102140BAF0EE080AB8EE2D
:104DC000080A02F084F884ED080A332084F8B00061
:104DD00089E08278C678077994F8B000322806D046
:104DE00084ED278A84ED268A84ED288A7BE00821D9
:104DF000DFED460AB0EE480A104602F068F8DFED33
:104E0000440A0821304620EE200AF3EE040A84ED1D
:104E1000270AB0EE480A02F05AF820EE090A0821E3
:104E2000F3EE040A84ED260AB0EE480A384602F092
:104E30004EF820EE280A84ED280A54E08278C678DD
:104E400094F8B00031280BD0332824D084ED228A86
:104E500084ED238A84ED248A84ED258A43E03EE0B4
:104E60009FED2C9A0821F0EE480AB0EE490A104650
:104E700002F02DF820EE280A0821F0EE480A84ED11
:104E8000240AB0EE490A304602F021F820EE280A42
:104E900084ED250A27E0DFED208A0821B0EE480ADC
:104EA000F0EE680A104602F012F820EE090A082116
:104EB000F0EE680A84ED220AB0EE480A304602F0AD
:104EC00006F820EE090A84ED230A0CE0022084F89B
:104ED000B10000218BF8001000F052F903E084F8D3
:104EE000B12000F009F928462FE700001800002043
:104EF0008C7D000800000000ACC527390AD7A33B11
:104F00000000FA440000FAC4DB0FC9400000204250
:104F1000CDCC4C3D000048C200004842FEE770473F
:104F200010B5022813D110EE101A0948814207DA91
:104F300010EE901A814203DA11EE101A814206DB5C
:104F400000F0DAF800F032F902490220087010BDD2
:104F50003333733F18000020124810B50088124CFC
:104F6000A070FBF7BBFF1148FDF7AAFB02210F4819
:104F7000FDF758F806220E490E48FFF7F9F80E49DA
:104F8000A1F1E000FCF7EEF8FFF7E8FA0A20FDF7E0
:104F9000A3FC094909482C39FBF7E8FF00202070E1
:104FA00010BD0000F8FF0008180000203C0B002096
:104FB0000D000020140F0020FC090020140A00201E
:104FC00010B504462DED088BF0EE419AB0EE60AAC4
:104FD000B0EE409A01F0ABFBB0EE408AB0EE691A39
:104FE000F0EE4A0AB0EE490A01F08CFB38EE000AF6
:104FF000F6EE008ADFED1DAA20EE288A79EE480A37
:10500000B3EE089A80EE890AF0EE6A0A30EE280ABA
:1050100000F050FC9FED16BAF0EE4B0A00F08CFC4D
:105020007AEE480A84ED000A80EE890AF0EE6A0AF8
:1050300030EE280A00F03EFCF0EE4B0A00F07CFC5B
:1050400084ED010A39EEC80AC0EE090A30EEA80A5A
:10505000F0EE6A0A00F02EFCF0EE4B0A00F06CFC59
:1050600084ED020ABDEC088B10BD000000000000BA
:10507000D7A3703F9FED060A002180ED000A80ED66
:10508000010A80ED020AC1600161416170470000C0
:1050900000000000012001F00AFCFBE7012001F004
:1050A00006FCFBE770B5134B02EBD2744FF4A04241
:1050B0001E68A2EB6405C6F89C501D6802EB6404F0
:1050C000C5F8A4401D6801EBD171A2EB6104C5F8DD
:1050D000A8401C6802EB6101C4F8AC10196800EB31
:1050E000D070A2EB6004C1F81C4102EB6000C1F873
:1050F000240170BDB80D0020002200B511461046F5
:10510000FFF7D0FF0249012081F8B10000BD000087
:105110001C090020DFED0D0A0D4901E030EE600AA8
:1051200010EE100A8842F9DC80EE201A9FED090A81
:10513000094921EE000ABDEEC00A10EE100A08600F
:10514000064901EB800090ED000A7047DB0FC94073
:10515000DB0FC9400000004400000020D0740008AC
:10516000064D4FF400644FF4FA7621462846FDF7C9
:1051700037FD304601F09BFBF7E7000000040048D4
:1051800010B5094C012210212046FDF72FFD012208
:10519000D1034FF09040FDF729FD20460022BDE8E5
:1051A00010400821FDF722BD0004004800224FF402
:1051B00000414FF09040FDF719BD1170010A517088
:1051C0009070704710B5502080F31188BFF34F8F57
:1051D000BFF36F8F02F0B6F818B104494FF080505A
:1051E0000860002080F3118810BD000004ED00E08D
:1051F00030B597B028216846FBF79CF8142111A818
:10520000FBF798F81C210AA8FBF794F80121080481
:10521000CDE900100024029402250491CDE9075045
:105220004FF4E01009906846FEF71CFA0F20CDE914
:1052300011056802CDE91340022111A81594FEF76B
:10524000E7F844F281000A90E8010E900001109006
:105250000C940AA8FEF718F817B030BD054801688D
:1052600041F47001016003494FF00060803908602B
:105270007047000088ED00E00148FEF75CBD0000CB
:10528000940E0020F0B502681B4B1C4F4FF0804C71
:10529000984203D0604501D0B84203D122F0700497
:1052A0004A682243164C174D174E984209D0604564
:1052B00007D0B84205D0A04203D0A84201D0B042E6
:1052C00003D122F44077CA683A434F6922F0800242
:1052D0003A4302608A68C2620A688262984205D0D4
:1052E000A04203D0A84201D0B04201D109690163B4
:1052F00001214161F0BD0000002C0140000400408C
:1053000000400140004401400048014090F8241052
:10531000C90706D001684A68836A22F400321A433A
:105320004A6090F82410890706D501684A68C36A64
:1053300022F480321A434A6090F82410490706D5B7
:1053400001684A68036B22F480221A434A6090F88D
:105350002410090706D501684A68436B22F400420D
:105360001A434A6090F82410C90606D501688A6875
:10537000836B22F480521A438A6090F824108906C5
:1053800006D501688A68C36B22F400521A438A600A
:1053900090F82410490611D501684A68036C22F47C
:1053A00080121A434A60016CB1F5801F06D1016872
:1053B0004A68436C22F4C0021A434A6090F82410F1
:1053C000090606D501684A68806C22F4002202436F
:1053D0004A607047F8B500260446C667FDF70CFC26
:1053E0000546206800686FF07E47000708D52B4609
:1053F00000224FF400112046009700F081F960B9B7
:105400002068006840070AD52B4600224FF480012F
:105410002046009700F074F908B10320F8BD202061
:105420006067A06784F870600020F8BD10B5406A1E
:105430000021A0F85A10A0F85210FEF74DFD10BD43
:1054400070B5446A606FA56F216889684FF00006E7
:10545000090606D5212804D1A4F85260204600F0A0
:105460003EF820688068400606D5222D04D1A4F8B5
:105470005A60204600F024F8E06F40F01000E0672A
:105480002046FEF729FD70BD10B50146406A8969C6
:1054900020290DD00021A0F8521001688A6822F05E
:1054A00080028A600068016841F04001016010BD1F
:1054B000FEF71CFF10BD10B5406AFEF718FF10BDC7
:1054C00001680A6822F490720A6001688A6822F012
:1054D00001028A602021816700210166704701680E
:1054E0000A6822F0C0020A6020214167704710B5A7
:1054F000B0F85C20836F0168222B04D0886940F0EB
:105500000800886110BD898C436D11401980416D80
:10551000891C4165B0F85A10491EA0F85A10B0F81D
:105520005A100029EED101680A6822F490720A60CC
:1055300001688A6822F001028A60202181670021C7
:105540000166FEF76BFE10BD10B5B0F85C20836FEE
:105550000168222B04D0886940F00800886110BDE2
:10556000898C1140426D1170416D491C4165B0F844
:105570005A10491EA0F85A10B0F85A100029EED15E
:1055800001680A6822F490720A6001688A6822F051
:1055900001028A602021816700210166FEF73EFE3C
:1055A00010BD000070B5044680682169E2690843B7
:1055B000616900251143226808431168494B19406D
:1055C0000143116020684168E26821F440511143B1
:1055D0004160A169206A084321688A6822F4306228
:1055E00002438A6040492068884210D13F48006BDE
:1055F00010F0030014D0012805D0022805D003289C
:105600000DD102200CE004200AE0082008E038490F
:10561000884202D03749884201D1002000E01020A2
:10562000E2694FF400414FF6EF768A422CD1092807
:1056300051D2DFE800F005081F50225050502500DD
:10564000FDF7AAFF01E0FDF7BFFF4100D4F8040019
:1056500001EB5001B1FBF0F080B2A0F11001B142BA
:1056600039D84FF6F0710140C0F342000143206881
:10567000C16031E020496068EAE7FDF7BDFFE4E77B
:105680004FF480316068E3E7092824D2DFE800F0B6
:10569000050817231A2323231D00FDF77DFF01E0D2
:1056A000FDF792FF616800EB5100B0FBF1F080B2B2
:1056B000A0F11001B1420ED82168C8600CE00F497A
:1056C000606803E0FDF798FFECE7606801EB5001CC
:1056D000B1FBF0F0EBE7012500202066606628466C
:1056E00070BD0000F369FFEF003801400010024078
:1056F00000440040004800400024F40000127A00FA
:105700002DE9F0479A4617460E4604464FF0000929
:105710004FF02008089D39E0681C37D0FDF76CFA7F
:10572000A0EB0A00A84222D80DB3206801684907FF
:105730002CD5C069C043000528D421684FF400600F
:1057400008622068016821F4D071016020688168D6
:1057500021F001018160C4F87480C4F87880C4F835
:105760007C8000BF84F870900320BDE8F08720683B
:10577000016821F4D07101602068816821F0010185
:105780008160C4F87480C4F87880EBE72068C06951
:1057900036EA000004D00020B842BDD00020E4E783
:1057A0000120F9E70148FEF799BB0000140F002023
:1057B000FEE700007FB5002504460395FDF73CF9A0
:1057C0000095084D0120CDE9015003A96846FDF779
:1057D00095F82246002329460120FDF7EDF8FDF754
:1057E000E1F87FBDF8FF000837B514460846064BC0
:1057F0006A46214600F0BCF904466946002000F0E4
:105800004EFD20463EBD00009F6200080907090EBC
:10581000002804DB00F1E02080F80014704700F05D
:105820000F0000F1E02080F8141D70472DED020BF1
:10583000019820F0004001909DED000B02B07047F0
:1058400000B52DED048BB0EE418AF0EE618AB0EE2A
:10585000409AF0EE609A83B053EC182B51EC190B80
:10586000FBF7B4F800F07040B0F1005F1AD018EE0A
:10587000101A18EE900A8DED008B002918BF012137
:10588000084320F00040C0F17F6000F1E040C00F0D
:1058900001BFB0EE480AF0EE680A03B0BDEC048B1D
:1058A00008BF00BDB0EE490A03B0F0EE690ABDECD6
:1058B000048B00BDB4EEE00AF1EE10FA01DCB0EEAC
:1058C000600A704700B52DED048BB0EE418AF0EE12
:1058D000618AB0EE409AF0EE609A83B053EC182BD8
:1058E00051EC190BFBF772F800F07040B0F1004F6B
:1058F0001AD018EE101A18EE900A8DED008B0029C0
:1059000018BF0121084320F00040C0F17F6000F182
:10591000E040C00F01BFB0EE480AF0EE680A03B0E5
:10592000BDEC048B08BF00BDB0EE490A03B0F0EE39
:10593000690ABDEC048B00BDB4EEE00AF1EE10FA8A
:1059400001D3B0EE600A704700B52DED048BB0EEC8
:10595000409AF0EE609A83B051EC190BFAF7B5FF5C
:1059600041EC180B18EE100A18EE901A8DED008B12
:10597000002818BF0120084320F00040C0F17F60DC
:1059800000F1E040C00F14D019EE101A19EE900A81
:105990008DED009B002918BF0121084320F0004035
:1059A000C0F17F6000F1E040C00F04BF012000F0B3
:1059B00017F8B0EE480A03B0F0EE680ABDEC048BAD
:1059C00000BD02E008C8121F08C1002AFAD17047C2
:1059D0007047002001E001C1121F002AFBD170476F
:1059E0000149086070470000BC0800202DE9FF5FF6
:1059F00082B00021DDE90430020DDDF840B0034340
:105A000018D044F61050A2F2FF32424315141198F8
:105A100001281FD0A5EB0B00401C5FEA000A4FF0E5
:105A200000064E4FDFF83891B046504615D5CAF102
:105A3000000413E0119801244AA3012801D16FEA60
:105A40000B010298119AC0E90031C0E9024206B088
:105A5000BDE8F09FCBF10000DFE704460021404A9B
:105A6000491842EB0450CDE9001012E0E00707D0DE
:105A700032463B4640464946FAF715FD8046894680
:105A800032463B4610461946FAF70DFD06460F46CC
:105A90006410002CEAD1DDE90401DDE90023BAF14C
:105AA000000F06DAFAF7FFFC42464B46FAF7FBFC1A
:105AB00005E0FAF76AFD42464B46FAF766FD0446F2
:105AC0000E460022284BFAF769FF03D84FF0FF304B
:105AD000014607E00022254B20463146FAF73CFC00
