:020000040800F2
:1000000000300020096E0008296900082B690008EB
:100010002D6900082F690008316900080000000000
:10002000000000000000000000000000336900082C
:1000300035690008000000003769000839690008C8
:10004000596E0008596E0008596E0008596E000874
:10005000596E0008596E0008596E0008596E000864
:10006000596E0008596E0008596E00083D69000875
:100070004D690008596E00085D6900086D69000847
:10008000596E0008596E00087D690008596E000815
:1000900095690008596E0008596E0008596E0008ED
:1000A000596E0008A5690008596E0008596E0008CD
:1000B000596E0008596E000800000000596E0008D3
:1000C000596E00080000000000000000596E000892
:1000D00000000000B5690008596E0008596E00085C
:1000E000596E0008596E0008000000000000000072
:1000F0000000000000000000000000000000000000
:1001000000000000000000000000000000000000EF
:100110000000000000000000C5690008D569000863
:1001200000000000000000000000000000000000CF
:1001300000000000000000000000000000000000BF
:10014000596E0008596E000800000000596E000842
:10015000596E0008596E0008596E0008596E000863
:10016000596E0008596E00080000000000000000F1
:10017000000000000000000000000000000000007F
:0801800000000000596E0008A8
:1001C00010B5054C237833B9044B13B10448AFF391
:1001D00000800123237010BDC00900200000000032
:1001E00060D2000808B5034B1BB103490348AFF3C5
:1001F000008008BD00000000C409002060D2000893
:1002000081F0004102E000BF83F0004330B54FEAC7
:1002100041044FEA430594EA050F08BF90EA020F34
:100220001FBF54EA000C55EA020C7FEA645C7FEAC7
:10023000655C00F0E2804FEA5454D4EB5555B8BFEA
:100240006D420CDD2C4480EA020281EA030382EA5B
:10025000000083EA010180EA020281EA0303362DED
:1002600088BF30BD11F0004F4FEA01314FF4801CC0
:100270004CEA113102D0404261EB410113F0004FD2
:100280004FEA03334CEA133302D0524263EB430389
:1002900094EA050F00F0A780A4F10104D5F1200E27
:1002A0000DDB02FA0EFC22FA05F2801841F1000182
:1002B00003FA0EF2801843FA05F359410EE0A5F156
:1002C00020050EF1200E012A03FA0EFC28BF4CF087
:1002D000020C43FA05F3C01851EBE37101F000453D
:1002E00007D54FF0000EDCF1000C7EEB00006EEB4A
:1002F0000101B1F5801F1BD3B1F5001F0CD34908D4
:100300005FEA30004FEA3C0C04F101044FEA44522A
:1003100012F5800F80F09A80BCF1004F08BF5FEAB1
:10032000500C50F1000041EB045141EA050130BD91
:100330005FEA4C0C404141EB0101013C28BFB1F5A3
:10034000801FE9D291F0000F04BF01460020B1FAEE
:1003500081F308BF2033A3F10B03B3F120020CDAC1
:100360000C3208DD02F1140CC2F10C0201FA0CF09F
:1003700021FA02F10CE002F11402D8BFC2F1200C04
:1003800001FA02F120FA0CFCDCBF41EA0C019040BA
:10039000E41AA2BF01EB0451294330BD6FEA040403
:1003A0001F3C1CDA0C340EDC04F11404C4F12002EE
:1003B00020FA04F001FA02F340EA030021FA04F300
:1003C00045EA030130BDC4F10C04C4F1200220FA57
:1003D00002F001FA04F340EA0300294630BD21FA95
:1003E00004F0294630BD94F0000F83F4801306BF5B
:1003F00081F480110134013D4EE77FEA645C18BF4F
:100400007FEA655C29D094EA050F08BF90EA020FE5
:1004100005D054EA000C04BF1946104630BD91EADD
:10042000030F1EBF0021002030BD5FEA545C05D1E0
:100430004000494128BF41F0004130BD14F580041F
:100440003CBF01F5801130BD01F0004545F0FE4193
:1004500041F470014FF0000030BD7FEA645C1ABFC8
:10046000194610467FEA655C1CBF0B46024650EAFF
:10047000013406BF52EA033591EA030F41F400212B
:1004800030BD00BF90F0000F04BF0021704730B5B1
:100490004FF4806404F132044FF000054FF0000186
:1004A00050E700BF90F0000F04BF0021704730B547
:1004B0004FF4806404F1320410F0004548BF40421C
:1004C0004FF000013EE700BF42004FEAE2014FEA71
:1004D00031014FEA02701FBF12F07F4393F07F4F4C
:1004E00081F06051704732F07F4208BF704793F04F
:1004F0007F4F04BF41F40021704730B54FF4607462
:1005000001F0004521F000411CE700BF50EA010264
:1005100008BF704730B54FF000050AE050EA01020D
:1005200008BF704730B511F0004502D5404261EB7D
:1005300041014FF4806404F132045FEA915C3FF4BE
:10054000D8AE4FF003025FEADC0C18BF03325FEA5B
:10055000DC0C18BF033202EBDC02C2F1200300FA0C
:1005600003FC20FA02F001FA03FE40EA0E0021FA31
:1005700002F11444BDE600BF70B54FF0FF0C4CF41F
:10058000E06C1CEA11541DBF1CEA135594EA0C0FD1
:1005900095EA0C0F00F0DEF82C4481EA030621EA0C
:1005A0004C5123EA4C5350EA013518BF52EA033547
:1005B00041F4801143F4801338D0A0FB02CE4FF0F9
:1005C0000005E1FB02E506F00042E0FB03E54FF029
:1005D0000006E1FB03569CF0000F18BF4EF0010E21
:1005E000A4F1FF04B6F5007F64F5407404D25FEA1D
:1005F0004E0E6D4146EB060642EAC62141EA5551D0
:100600004FEAC52040EA5E504FEACE2EB4F1FD0C11
:1006100088BFBCF5E06F1ED8BEF1004F08BF5FEA8F
:10062000500E50F1000041EB045170BD06F0004641
:1006300046EA010140EA020081EA0301B4EB5C04EE
:10064000C2BFD4EB0C0541EA045170BD41F48011E6
:100650004FF0000E013C00F3AB8014F1360FDEBF0B
:10066000002001F0004170BDC4F10004203C35DAE7
:100670000C341BDC04F11404C4F1200500FA05F36A
:1006800020FA04F001FA05F240EA020001F000420B
:1006900021F0004110EBD37021FA04F642EB060181
:1006A0005EEA430E08BF20EAD37070BDC4F10C04AB
:1006B000C4F1200500FA04F320FA05F001FA04F26F
:1006C00040EA020001F0004110EBD37041F100015B
:1006D0005EEA430E08BF20EAD37070BDC4F1200566
:1006E00000FA05F24EEA020E20FA04F301FA05F2CE
:1006F00043EA020321FA04F001F0004121FA04F276
:1007000020EA020000EBD3705EEA430E08BF20EA45
:10071000D37070BD94F0000F0FD101F0004640007F
:1007200041EB010111F4801F08BF013CF7D041EA01
:10073000060195F0000F18BF704703F00046520005
:1007400043EB030313F4801F08BF013DF7D043EAD6
:100750000603704794EA0C0F0CEA135518BF95EA8C
:100760000C0F0CD050EA410618BF52EA4306D1D113
:1007700081EA030101F000414FF0000070BD50EA32
:10078000410606BF1046194652EA430619D094EABC
:100790000C0F02D150EA013613D195EA0C0F05D1A6
:1007A00052EA03361CBF104619460AD181EA0301FA
:1007B00001F0004141F0FE4141F470014FF00000B2
:1007C00070BD41F0FE4141F4780170BD70B54FF04D
:1007D000FF0C4CF4E06C1CEA11541DBF1CEA1355CD
:1007E00094EA0C0F95EA0C0F00F0A7F8A4EB0504AF
:1007F00081EA030E52EA03354FEA013100F08880A6
:100800004FEA03334FF0805545EA131343EA12636E
:100810004FEA022245EA111545EA10654FEA002623
:100820000EF000419D4208BF964244F1FD0404F5DC
:10083000407402D25B084FEA3202B61A65EB030538
:100840005B084FEA32024FF480104FF4002CB6EBF5
:10085000020E75EB030E22BFB61A754640EA0C0075
:100860005B084FEA3202B6EB020E75EB030E22BFB5
:10087000B61A754640EA5C005B084FEA3202B6EBF6
:10088000020E75EB030E22BFB61A754640EA9C00B5
:100890005B084FEA3202B6EB020E75EB030E22BF85
:1008A000B61A754640EADC0055EA060E18D04FEA43
:1008B000051545EA16754FEA06164FEAC30343EAE3
:1008C00052734FEAC2025FEA1C1CC0D111F4801FB0
:1008D0000BD141EA00014FF000004FF0004CB6E7A9
:1008E00011F4801F04BF01430020B4F1FD0C88BF48
:1008F000BCF5E06F3FF6AFAEB5EB030C04BFB6EB53
:10090000020C5FEA500C50F1000041EB045170BD45
:100910000EF0004E4EEA113114EB5C04C2BFD4EB72
:100920000C0541EA045170BD41F480114FF0000EF6
:10093000013C90E645EA060E8DE60CEA135594EA72
:100940000C0F08BF95EA0C0F3FF43BAF94EA0C0F75
:100950000AD150EA01347FF434AF95EA0C0F7FF4EA
:1009600025AF104619462CE795EA0C0F06D152EA3E
:1009700003353FF4FDAE1046194622E750EA410622
:1009800018BF52EA43067FF4C5AE50EA41047FF433
:100990000DAF52EA43057FF4EBAE12E74FF0FF3C98
:1009A00006E000BF4FF0010C02E000BF4FF0010C69
:1009B0004DF804CD4FEA410C7FEA6C5C4FEA430CE2
:1009C00018BF7FEA6C5C1BD001B050EA410C0CBF31
:1009D00052EA430C91EA030F02BF90EA020F002093
:1009E000704710F1000F91EA030F58BF994208BFFA
:1009F00090422CBFD8176FEAE37040F001007047B7
:100A00004FEA410C7FEA6C5C02D150EA013C07D10D
:100A10004FEA430C7FEA6C5CD6D152EA033CD3D058
:100A20005DF8040B704700BF8446104662468C4652
:100A30001946634600E000BF01B5FFF7B7FF002885
:100A400048BF10F1000F01BD4DF808EDFFF7F4FFAE
:100A50000CBF012000205DF808FB00BF4DF808ED39
:100A6000FFF7EAFF34BF012000205DF808FB00BF5C
:100A70004DF808EDFFF7E0FF94BF012000205DF87E
:100A800008FB00BF4DF808EDFFF7CEFF94BF012033
:100A900000205DF808FB00BF4DF808EDFFF7C4FF2C
:100AA00034BF012000205DF808FB00BF4FEA41027F
:100AB00012F5001215D211D56FF47873B3EB6252B0
:100AC00012D94FEAC12343F0004343EA505311F0D7
:100AD000004F23FA02F018BF404270474FF0000069
:100AE000704750EA013005D111F0004008BF6FF0A7
:100AF000004070474FF00000704700BF4FEA4102CE
:100B0000B2F1E04324BFB3F5001CDCF1FE5C0DD96B
:100B100001F0004C4FEAC0024CEA5070B2F1004FB5
:100B200040EB830008BF20F00100704711F0804FB8
:100B300021D113F13872BCBF01F00040704741F47D
:100B400080114FEA5252C2F11802C2F1200C10FA81
:100B50000CF320FA02F018BF40F001004FEAC12365
:100B60004FEAD32303FA0CFC40EA0C0023FA02F309
:100B70004FEA4303CCE77FEA625307D150EA0133DF
:100B80001EBF4FF0FE4040F44000704701F00040AF
:100B900040F0FE4040F40000704700BF000000003D
:100BA0000000000000000000000000000000000045
:100BB0000000000000000000000000000000000035
:100BC00090F800F06DE9024520F007016FF0000C8D
:100BD00010F0070491F820F040F049804FF0000435
:100BE0006FF00700D1E9002391F840F000F1080010
:100BF00082FA4CF2A4FA8CF283FA4CF3A2FA8CF348
:100C00004BBBD1E9022382FA4CF200F10800A4FAAE
:100C10008CF283FA4CF3A2FA8CF3E3B9D1E9042302
:100C200082FA4CF200F10800A4FA8CF283FA4CF339
:100C3000A2FA8CF37BB9D1E9062301F1200182FAF3
:100C40004CF200F10800A4FA8CF283FA4CF3A2FAF9
:100C50008CF3002BC6D0002A04BF04301A4612BA07
:100C6000B2FA82F2FDE8024500EBD2007047D1E90A
:100C7000002304F00305C4F100004FEAC50514F099
:100C8000040F91F840F00CFA05F562EA05021CBF6A
:100C900063EA050362464FF00004A9E70000000084
:100CA00001F0FF01102A2BDB10F0070F08D010F81D
:100CB000013B013A8B422DD010F0070F42B3F6D121
:100CC000F0B441EA012141EA014122F007047FF03A
:100CD00000070023F0E80256083C85EA010586EA91
:100CE000010685FA47F5A3FA87F586FA47F6A5FACD
:100CF00087F68EB9EED1F0BC01F0FF0102F00702D9
:100D000032B110F8013B013A83EA010313B1F8D183
:100D10000020704701387047002D06BF3546033864
:100D2000073815F0010F07D1013015F4807F02BF9D
:100D3000013015F4C03F0130F0BC0138704700BFEE
:100D4000844641EA000313F003036DD1403A41D3D6
:100D500051F8043B40F8043B51F8043B40F8043B95
:100D600051F8043B40F8043B51F8043B40F8043B85
:100D700051F8043B40F8043B51F8043B40F8043B75
:100D800051F8043B40F8043B51F8043B40F8043B65
:100D900051F8043B40F8043B51F8043B40F8043B55
:100DA00051F8043B40F8043B51F8043B40F8043B45
:100DB00051F8043B40F8043B51F8043B40F8043B35
:100DC00051F8043B40F8043B51F8043B40F8043B25
:100DD000403ABDD2303211D351F8043B40F8043BC5
:100DE00051F8043B40F8043B51F8043B40F8043B05
:100DF00051F8043B40F8043B103AEDD20C3205D3D5
:100E000051F8043B40F8043B043AF9D2043208D0CC
:100E1000D2071CBF11F8013B00F8013B01D30B883E
:100E200003806046704700BF082A13D38B078DD01C
:100E300010F003038AD0C3F10403D21ADB071CBFEE
:100E400011F8013B00F8013B80D331F8023B20F858
:100E5000023B7BE7043AD9D3013A11F8013B00F891
:100E6000013BF9D20B7803704B7843708B78837019
:100E7000604670474FEA410C7FEA6C5C02D150EA51
:100E8000013C0AD14FEA430C7FEA6C5C02D152EA82
:100E9000033C02D14FF0000070474FF00100704753
:100EA00053B94AB9002908BF00281CBF4FF0FF31D1
:100EB0004FF0FF3000F06EB9ADF1080C6DE904CED3
:100EC00000F006F8DDF804E0DDE9022304B0704725
:100ED0002DE9F047089D04468C46002B40F08380A6
:100EE0008A42174647D9B2FA82F242B1C2F12000D3
:100EF00024FA00F09140974040EA010C94404FEAF8
:100F00001748230CBCFBF8F61FFA87FE08FB16C136
:100F100043EA014306FB0EF1994209D9FB1806F199
:100F2000FF3080F01981994240F21681023E3B4425
:100F30005B1AA4B2B3FBF8F008FB103344EA034495
:100F400000FB0EFEA64509D93C1900F1FF3380F0E5
:100F50000581A64540F2028102383C4440EA064041
:100F6000A4EB0E0400261DB1D4400023C5E90043C4
:100F70003146BDE8F08702B9FFDEB2FA82F2002AFC
:100F800050D1CB1B4FEA174E1FFA87F80126B3FB4F
:100F9000FEFC210C0EFB1C3341EA034108FB0CF361
:100FA0008B4207D979180CF1FF3002D28B4200F244
:100FB000E9808446C91AA3B2B1FBFEF00EFB101102
:100FC00043EA014408FB00F8A04507D93C1900F1A9
:100FD000FF3302D2A04500F2D9801846A4EB0804E2
:100FE00040EA0C40BFE78B4209D9002D00F0B180E8
:100FF0000026C5E9000130463146BDE8F087B3FA66
:1010000083F6002E4AD18B4202D3824200F2B8808E
:10101000841A61EB030101208C46002DA8D0C5E99C
:10102000004CA5E7C2F1200320FA03F6974001FA2D
:1010300002F04FEA174ED9403043030CB1FBFEF6E5
:101040001FFA87F80EFB161143EA014306FB08F16D
:10105000994204FA02F409D9FB1806F1FF3C80F02A
:101060008D80994240F28A80023E3B445B1A81B2F5
:10107000B3FBFEF00EFB103341EA034100FB08F323
:101080008B4207D9791800F1FF3C73D28B4271D99A
:1010900002383944CB1A40EA064678E7C6F1200CFC
:1010A00003FA06F422FA0CF31C4320FA0CF701FAB7
:1010B00006F34FEA144E21FA0CF11F433B0CB1FB2F
:1010C000FEF91FFA84F80EFB191143EA014109FBEE
:1010D00008FA8A4502FA06F200FA06F308D96118FE
:1010E00009F1FF3048D28A4546D9A9F102092144C5
:1010F000A1EB0A01BFB2B1FBFEF00EFB101147EAF3
:10110000014700FB08F8B84507D9E71900F1FF319E
:101110002ED2B8452CD90238274440EA0940A7EB23
:101120000807A0FB02894F45C64649461AD317D087
:101130005DB1B3EB0E0267EB010707FA0CFCF2405E
:101140004CEA0202F740C5E9002700263146BDE817
:10115000F0872E4628460BE70646E9E61846FDE6E8
:101160004345E5D2B8EB020E69EB04010138DFE735
:101170000846D2E760468DE78146B9E7664675E7DF
:1011800030464AE7ACF1020C394413E702383C44DC
:1011900024E700BF704700BF08B5074A136843F053
:1011A00010031360032001F025FA002005F07EFBF8
:1011B00005F064FB002008BD00200240034A1168CE
:1011C000034B1B780B441360704700BFDC09002001
:1011D00000000020014B1868704700BFDC090020A8
:1011E00038B50446FFF7F6FF0546B4F1FF3F02D0DD
:1011F000044B1B781C44FFF7EDFF401BA042FAD3C1
:1012000038BD00BF0000002070477047704770472E
:1012100038B50268936803F00303012B01D0002066
:1012200038BD0446136813F0010F2ED0936803F005
:101230000D03012B09D0036C43F010030364436CCE
:1012400043F0010343640120EAE7936843F002039B
:101250009360036803221A60FFF7BCFF054623680A
:101260009B6813F0010F0ED0FFF7B4FF401B02285C
:10127000F5D9236C43F010032364636C43F001033E
:1012800063640120CCE70020CAE70020C8E7000023
:1012900038B504460268936803F00303012B0DD0B0
:1012A0009168184B19420FD0236C43F0100323644C
:1012B000636C43F001036364012038BD136813F0CD
:1012C000010FEDD00020F8E7936843F0010393602D
:1012D000FFF780FF054623681B6813F0010F0ED14E
:1012E000FFF778FF431B022BF5D9236C43F0100363
:1012F0002364636C43F0010363640120DDE7002095
:10130000DBE700BF3F00008008B5406A036C43F094
:1013100040030364436C43F004034364FFF777FF27
:1013200008BD08B5406AFFF770FF08BD08B5436AFD
:101330001A6C12F0500F1AD11A6C42F400721A642F
:101340001A68D26812F4406F0DD15A7E5AB91A6CDD
:1013500022F480721A641A6C12F4805F03D11A6C42
:1013600042F001021A641846FFF74EFF08BD9B6B5E
:101370001B6B9847FAE7000030B597B00023019344
:10138000002800F0F7800446036C13F0100F52D1D0
:10139000036CABB1002023689A6812F0805F03D021
:1013A0009B6813F0005F47D0236C23F0120343F0D7
:1013B00010032364636C43F00103636401203BE08A
:1013C0004364C364836480F83C3004F0B3FF236853
:1013D0009B6813F0805F01D00020DCE72046FFF718
:1013E00017FF236C13F0100FD5D10028D3D1236C35
:1013F00023F4885323F0020343F00203236422689A
:10140000936823F0405393602268936843F08053BD
:101410009360594B1B68594AA2FB03239B0C03EBB7
:1014200083035B00019302E0019B013B0193019B5D
:10143000002BF9D1AFE70020236C13F0100F40F020
:101440009080002840F08D802368996811F0040195
:1014500040F08780226C22F4817242F00202226402
:10146000B3F1A04F54D04FF0A04202929A6802F01C
:101470000302012A4FD0029B23B19A6802F00302B3
:10148000012A4DD03E4A936823F4403365682B43CC
:101490009360627E5303656B012D01D04FF4805140
:1014A0000B43E1680B43A1680B4394F8201001291A
:1014B0003BD0A26A012A02D0E16A0A4313432268A0
:1014C000916811F00C0F0CD1D16821F4804121F00A
:1014D0000201D160217E94F83020520042EA81322C
:1014E00013432168CD68274A2A401343CB60236900
:1014F000012B2DD02268136B23F00F0313630023FD
:101500006364236C23F0030343F0010323642FE09F
:101510001D4A0292AAE71B6813F0010FB9D1AAE78E
:101520001B6813F0010FB4D1ACE732B9626A013A1B
:1015300043EA424343F48033BBE7226C22F02202A9
:1015400042F020022264626C42F001026264B0E761
:1015500021680B6B23F00F03E269013A13430B631D
:10156000CDE7236C23F0120343F010032364012022
:1015700017B030BD0120FBE70800002083DE1B43CD
:101580000003005007C0F0FF00010050F8B50368E9
:101590009B6813F0040F40F0838004460E46154606
:1015A00090F83C30012B7DD0012380F83C303E4B3D
:1015B0009B6813F01F0F05D0002380F83C300127F3
:1015C0003846F8BDFFF764FE0746002864D1236C57
:1015D00023F4706323F0010343F480732364324BDC
:1015E0009B6813F01F0F17D02268B2F1A04F13D0E1
:1015F000236C43F4801323642C4B9A421BD14FF08D
:10160000A043DB6813F0007F15D0236C23F4405314
:1016100043F4805323640EE0236C23F4801323648B
:101620002368DB6813F0007F05D0236C23F440535C
:1016300043F480532364236C13F4805F29D0636CDC
:1016400023F006036364002384F83C30A36B184A3C
:101650009A62A36B174ADA62A36B174A1A6323686C
:101660001C221A602268536843F0100353602268FA
:10167000D36843F00103D36021682B4632464031E2
:10168000A06B01F05BF82268936843F00403936059
:1016900096E700236364D6E7002384F83C308FE7A5
:1016A00002278DE702278BE700030050000100505E
:1016B0002D130008231300080913000870B590F8D3
:1016C0003C30012B3FD004460D46012380F83C30CE
:1016D000FFF79EFD0646002830D1012323642268CF
:1016E000936823F080439360012D1BD02268936898
:1016F00043F000439360FFF76DFD054623689B6848
:10170000002B15DAFFF766FD431B0A2BF6D9236C75
:1017100023F0120343F010032364002384F83C30C9
:1017200001260EE02268936843F080439360DDE772
:10173000236C23F0030343F001032364002384F8A4
:101740003C30304670BD0226FBE77047704770475B
:101750007047000010B5044603681A6812F0040FC1
:1017600003D05A6812F0040F07D11A6812F0080F5C
:1017700052D05A6812F0080F4ED0226C12F0100F9F
:1017800003D1226C42F400722264A34A926812F0E0
:101790001F0F12D0A04A926802F01F02052A0CD037
:1017A0009D4A926802F01F02092A06D0B3F1A04FA9
:1017B00003D04FF0A042D16800E0D968DA6812F493
:1017C000406F23D111F4005F20D11A6812F0080F86
:1017D0001CD09A6812F0040F10D15A6822F00C0243
:1017E0005A60236C23F480732364236C13F4805FAA
:1017F0000CD1236C43F00103236407E0236C43F016
:1018000010032364636C43F0010363642046FFF715
:10181000FBFC23680C221A6023681A6812F0200F60
:1018200003D05A6812F0200F07D11A6812F0400F47
:1018300071D05A6812F0400F6DD0226C42F4005201
:101840002264754A926812F01F0F12D0724A926891
:1018500002F01F02052A0CD06F4A926802F01F02A4
:10186000092A06D0B3F1A04F03D04FF0A042D168AF
:1018700000E0D968DA6C12F0C00F09D011F0007FD7
:1018800043D1DA6812F4406F3FD111F4005F3CD1CC
:101890001A6812F0400F38D05F4A926812F01F0F9A
:1018A00012D05D4A926802F01F02062A0CD05A4AF2
:1018B000926802F01F02072A06D0B3F1A04F03D0AE
:1018C0004FF0A042D26800E0DA6812F4001F1CD189
:1018D0009A6812F0080F10D15A6822F060025A601C
:1018E000236C23F480532364236C13F4807F0CD186
:1018F000236C43F00103236407E0236C43F01003DF
:101900002364636C43F0010363642046FFF71DFF0B
:10191000236860221A6023681A6812F0800F03D0CF
:101920005B6813F0800F3ED123681A6812F4807F41
:1019300003D05B6813F4807F40D123681A6812F4E7
:10194000007F03D05B6813F4007F43D123681A68DB
:1019500012F0100F1DD05A6812F0100F19D0626BE0
:10196000012A08D02C4A926812F01F0F3ED1DB6882
:1019700013F0010F0AD0236C43F480632364636C7B
:1019800043F0020363642046FFF741FC2368102202
:101990001A6023681A6812F4806F03D05A6812F430
:1019A000806F29D110BD236C43F48033236420461B
:1019B000FFF72CFC236880221A60B5E7236C43F400
:1019C000003323642046FFF7C2FE23684FF4807281
:1019D0001A60B2E7236C43F4802323642046FFF7A8
:1019E000B7FE23684FF400721A60AFE70A4B9B689A
:1019F00013F4404FCAD0BEE7226C42F48042226406
:101A0000626C42F0080262644FF480621A60204601
:101A1000FFF79CFEC6E700BF0003005030B496B04D
:101A20000022019290F83C20012A00F0A281034696
:101A3000012280F83C200068826812F0040F40F018
:101A40008D814A68042A32D8046B02EB42025200AC
:101A50001F25954024EA05040D6805FA02F2224389
:101A600002631868826812F00C0F68D10A68092AAC
:101A70004ED9846902EB42021E3A0725954024EABA
:101A800005048D6805FA02F22243826148691C68E8
:101A9000E268C2F3C102520000FA02F2086901389A
:101AA000032800F28B80DFE800F04068737E092A8B
:101AB0000ED8446B02EB420252001E3A1F2595409D
:101AC00024EA05040D6805FA02F222434263C8E7DE
:101AD0000E2A0ED8846B02EB420252003C3A1F25BC
:101AE000954024EA05040D6805FA02F22243826358
:101AF000B7E7C46B02EB420252005A3A1F259540E9
:101B000024EA05040D6805FA02F22243C263A8E73D
:101B1000446902EB42020725954024EA05048D68DA
:101B200005FA02F222434261B0E7206E924D054071
:101B3000086842EA8062154345F00045256618684A
:101B4000826802F00302012A68D0CA68012A6BD0B9
:101B5000D0F8B0200D680124AC4022EA0402C0F89D
:101B6000B0200A68102A00F08880112A00F0A680B0
:101B7000122A00F0A9800020F5E0606E7E4D05403D
:101B8000086842EA8062154345F000456566D6E77D
:101B9000A06E794D0540086842EA8062154345F021
:101BA0000045A566CBE7E56E734828400D6842EA1C
:101BB0008562024342F00042E266C0E7226E02F014
:101BC000F8420868B2EB806F03D1226E22F0004227
:101BD00022661A68506E00F0F8400C68B0EB846F13
:101BE00003D1506E20F0004050661A68906E00F0ED
:101BF000F8400C68B0EB846F03D1906E20F0004089
:101C000090661A68D06E00F0F8400C68B0EB846FF4
:101C100095D1D06E20F00040D06690E7026812F0B7
:101C2000010F92D000209EE0D0F8B0200D68012472
:101C3000AC402243C0F8B0200A68092A0ED91D68BA
:101C4000A86902EB42021B3A0724944020EA0400F0
:101C50008C6804FA02F20243AA6182E71D6868698F
:101C6000013202EB42020724944020EA04008C680F
:101C700004FA02F202436A6173E74049896811F489
:101C8000000F7FF472AF1868B0F1A04F23D04FF06F
:101C9000A0410291816801F0030101291ED002993F
:101CA00021B18C6804F00304012C21D0102A24D027
:101CB000112A42D0122A4AD0002054E02F498968C4
:101CC00011F0807FDFD053E72C49896811F4800F31
:101CD000D9D0002047E02A490291DBE7016811F0E2
:101CE000010FDCD01A6C42F020021A6401203AE0A5
:101CF000096811F0010FF5D1D8E7B0F1A04FD7D1A5
:101D00001E498A6842F400028A601E4A1268A1F1E4
:101D10004E61A1F58421A1F27D41A1FB0212920C3A
:101D200002EB82025200019202E0019A013A019212
:101D3000019A002AF9D1002015E0B0F1A04FB9D1E5
:101D40000E498A6842F080728A6000200BE00B49DD
:101D50008A6842F480028A60002004E01A6C42F033
:101D600020021A640120002283F83C2016B030BC07
:101D700070470220FAE700BF00F0FF830003005025
:101D8000000100500800002070B495B003460268BE
:101D9000B2F1A04F3AD04FF0A04000900098002838
:101DA00073D093F83C40012C71D0012483F83C405F
:101DB000926812F0040F5DD1826812F0040F59D1BD
:101DC0000A68002A31D0334DAA6822F460424C6878
:101DD00093F8306044EA46342243AA601C68A26843
:101DE00002F00302012A14D0826802F00302012AE1
:101DF00015D0284CA26822F4716222F00F02086804
:101E0000896801430A43A260002038E0224800901C
:101E1000C4E7226812F0010FE6D000202FE002682C
:101E200012F0010FE5D0002029E01A498A6822F457
:101E300060428A6019688A6802F00302012A0DD0A4
:101E4000826802F00302012A0ED012498A6822F445
:101E5000716222F00F028A60002010E00A6812F01E
:101E6000010FEDD000200AE0026812F0010FECD063
:101E7000002004E01A6C42F020021A6401200022C3
:101E800083F83C2015B070BC70470120FAE70220AF
:101E9000F8E700BF0003005000010050002800F0E8
:101EA000A18038B5044690F82030D3B12268136879
:101EB00023F002031360FFF78DF9054623685A6883
:101EC00012F0020F10D0FFF785F9401B0A28F5D950
:101ED000636A43F400336362052384F820300120F1
:101EE00038BD04F0FDFAE1E71A6842F001021A6019
:101EF000FFF770F9054623685A6812F0010F0DD1FB
:101F0000FFF768F9401B0A28F5D9636A43F40033E8
:101F10006362052384F820300120E1E7227E012A54
:101F20003DD01A6822F080021A60637E012B3BD0FC
:101F30002268136823F040031360A37E012B39D07D
:101F40002268136823F020031360E37E012B37D04F
:101F50002268136843F010031360237F012B35D0F0
:101F60002268136823F008031360637F012B33D0CA
:101F70002268136823F004031360A368E268134324
:101F800022691343626913436268013A216813436B
:101F9000CB6100206062012384F82030A0E71A683A
:101FA00042F080021A60C0E72268136843F04003E1
:101FB0001360C2E72268136843F020031360C4E78C
:101FC0002268136823F010031360C6E722681368C1
:101FD00043F008031360C8E72268136843F0040362
:101FE0001360CAE701207047026890F82030013B77
:101FF000DBB2012B05D9436A43F4802343620120FD
:10200000704770B4D2F8003243F00103C2F80032D6
:102010004B6903F01F03012000FA03F3D2F81C02FE
:10202000DC4320EA0300C2F81C02C869A8B9D2F850
:102030000C022040C2F80C02CE688D88486945EA3F
:102040000645483042F830508E680D88486945EAA8
:102050000645483002EBC0004560C869012819D028
:10206000886970BBD2F804022040C2F804020869F3
:1020700068BBD2F814020440C2F81442096A01296C
:102080002BD0D2F8003223F00103C2F80032002036
:1020900070BC7047D2F80C021843C2F80C020E68EC
:1020A0008D88486945EA0645483042F830508E68C8
:1020B0008D89486945EA0645483002EBC000456015
:1020C000CEE7D2F804021843C2F80402CFE7D2F8F0
:1020D00014021843C2F81402D0E7D2F81C120B43C2
:1020E000C2F81C32CDE770B5044690F82050EDB22E
:1020F000012D06D0436A43F400234362012528469C
:1021000070BD022380F820300268136823F00103B9
:102110001360FFF75FF8064623685B6813F0010F52
:102120000CD0FFF757F8831B0A2BF5D9636A43F4E9
:1021300000336362052384F82030E0E70025656200
:10214000DDE770B490F820400568AD68013CE4B26A
:10215000012C65D815F0E05F5CD0C5F30164022C5A
:1021600005D9436A43F40003436201205DE0012581
:10217000A5401D608B68002B39D10E68CB680568BF
:1021800043EA465604F118031B01EE5003680D693B
:1021900004F1180603EB06135D600B7D012B31D0B3
:1021A000D17993791B0443EA0163517943EA01230E
:1021B000157901682B4301EB0411C1F88C31D178FA
:1021C00093781B0443EA0163517843EA01231178B1
:1021D00002680B4302EB0412C2F88831026818341B
:1021E0002401135943F00103135100201DE04D68F1
:1021F00043EAC503CD6806682B4304F118052D0199
:102200007351C3E7036803EB0613596841F4807107
:102210005960C5E7436A43F400134362012004E0B8
:10222000436A43F480234362012070BC704730B49A
:1022300090F82040013CE4B2012C00F2918051B9A9
:102240000468E46814F0030F10D1436A43F40013E8
:102250004362012089E00468246914F0030F05D16A
:10226000436A43F40013436201207EE0056801F1F4
:102270001B0424012C5904F004049460002C61D147
:10228000056801F11B0424012C59640D14600568D4
:1022900001F11B0424012D5905F00205D5600568E4
:1022A00025446D6805F00F051561056825446D68C6
:1022B000C5F30725956105682C446468240C5461B6
:1022C000026802EB0112D2F8B8211A70026802EB20
:1022D0000112D2F8B821C2F307225A70026802EB49
:1022E0000112D2F8B821C2F307429A70026802EBD9
:1022F0000112D2F8B821120EDA70026802EB011254
:10230000D2F8BC211A71026802EB0112D2F8BC218A
:10231000C2F307225A71026802EB0112D2F8BC2103
:10232000C2F307429A71026802EB0112D2F8BC2193
:10233000120EDA7171B90268D36843F02003D360DA
:10234000002012E0056801F11B0424012C59E40867
:1023500054609CE70268136943F020031361EFE7C0
:10236000436A43F480234362012030BC704790F8F5
:102370002030013BDBB2012B05D9436A43F48023B3
:10238000436201207047026853691943516100207C
:102390007047704770477047704770477047704785
:1023A000704770477047704770472DE9F84F0546F2
:1023B00003685C69D3F804809F68D3F80CB0D3F845
:1023C00010A0D3F8189014F001063BD017F00106C6
:1023D00016D001229A6017F0020F08D117F0040FEF
:1023E0000CD117F0080606D04FF4805608E0FFF72E
:1023F000D0FF002604E0FFF7CFFF01E04FF40066B6
:1024000017F4807F0DD02B684FF480729A6017F418
:10241000007F40F0868017F4806F00F0868046F4DD
:10242000005617F4803F0DD02B684FF480329A602D
:1024300017F4003F40F0838017F4802F00F0838072
:1024400046F4004614F0080F07D01BF0100F04D01C
:1024500046F400762B681022DA6014F0040F02D0E4
:102460001BF0080F79D114F0020F04D02B68DB6841
:1024700013F0030F78D114F0400F07D01AF0100FAB
:1024800004D046F480662B6810221A6114F0200FE5
:1024900002D01AF0080F6BD114F0100F04D02B6883
:1024A0001B6913F0030F6AD114F4003F02D018F037
:1024B000100F68D114F4803F02D018F0080F69D1D2
:1024C00014F4004F7AD018F0040F74D014F4807F05
:1024D00004D019F0010F01D046F0010614F4007F7A
:1024E00004D019F0020F01D046F0020614F4806FF8
:1024F00004D019F0040F01D046F0040614F4006F64
:1025000059D019F0700956D0B9F1400F65D058D89C
:10251000B9F1200F5ED0B9F1300F42D146F020065C
:1025200044E02846FFF736FF7BE717F4006F02D040
:1025300046F4804675E72846FFF72FFF71E72846E7
:10254000FFF729FF7EE717F4002F02D046F480360C
:1025500078E72846FFF722FF74E72B680822DA6045
:102560002846FFF71CFF7EE7284602F0B5FF82E70A
:102570002B6808221A612846FFF713FF8CE72846CC
:10258000FFF70EFF90E72B6810225A602846FFF7EE
:1025900009FF8FE72B6808225A602846FFF703FFE0
:1025A0008EE7B9F1100F01D146F008062A68936949
:1025B00023F0700393612B6804225A609EB9BDE832
:1025C000F88FB9F1500F0BD0B9F1600FEED146F48E
:1025D0008076EBE746F01006E8E746F04006E5E7D0
:1025E00046F08006E2E76B6A1E436E622846FFF7FC
:1025F000DBFEE4E7074AD36823F4E0631B041B0C0B
:10260000000200F4E060034343F0BF6343F400338F
:10261000D360704700ED00E030B4174BDB68C3F3C4
:102620000223C3F10704042C28BF04241D1D062D1A
:1026300018D9033B4FF0FF3505FA04F421EA0401F1
:10264000994005FA03F322EA0303194300280BDB40
:102650000901C9B200F1604000F5614080F8001343
:1026600030BC70470023E5E700F00F000901C9B254
:10267000024B1954F4E700BF00ED00E014ED00E058
:10268000002807DB00F01F02400901239340024AA3
:1026900042F82030704700BF00E100E070B4066CE3
:1026A000C56B0124B4406C60046863604368102B00
:1026B00005D0036899600368DA6070BC70470368EE
:1026C0009A600368D960F8E70268054B1344054A2D
:1026D000A2FB03231B099B000364034BC3637047E6
:1026E000F8FFFDBFCDCCCCCC0000024020B310B52C
:1026F0000446022380F8213001680A6822F47F52E0
:1027000022F03002436880680343E0680343206995
:10271000034360690343A0690343E0690343134330
:102720000B602046FFF7D0FF0020A063012384F850
:10273000213084F8200010BD0120704738B50446D0
:1027400090F82000012831D0012084F8200094F86E
:102750002100012804D0002384F82030022038BD55
:10276000022084F821000020A0632568286820F05A
:10277000010028602046FFF791FFE36A5BB1226801
:10278000136843F00E0313602268136843F00103DB
:1027900013600020E3E72268136843F00A03136024
:1027A0002268136823F004031360EDE70220D6E7E4
:1027B00008B590F82130022B03D004238363012055
:1027C00008BD0268136823F00E03136002681368E3
:1027D00023F001031360036CC16B012202FA03F3BF
:1027E0004B6080F82120002380F82030436B13B128
:1027F00098470020E4E70020E2E738B5C36B1A6889
:1028000004682568016C04238B40134213D015F033
:10281000040F10D0236813F0200F03D1236823F096
:1028200004032360016CC26B04238B405360C36AB2
:1028300003B1984738BD02238B4013421AD015F0DC
:10284000020F17D0236813F0200F06D1236823F05E
:102850000A032360012380F82130016CC26B02233C
:102860008B405360002380F82030836A002BE1D036
:102870009847DFE7082303FA01F11142DAD015F097
:10288000080FD7D0236823F00E032360026CC16BBE
:10289000012303FA02F24A60836380F821300023A7
:1028A00080F82030036B002BC4D09847C2E70000AB
:1028B000044B0022DA61044A136943F001031361F7
:1028C00001807047E0090020002002400C4BDB68CB
:1028D00013F0100305D00B4AD36943F00203D36110
:1028E0001023074AD26812F0040F06D00549CA69BE
:1028F00042F00102CA6143F00403014AD360704709
:1029000000200240E00900200A4B1B6913F0800FF1
:102910000BD0084B084A5A6002F188325A601B6992
:1029200013F0800F03D10020704700207047012072
:10293000704700BF0020024023016745034A136926
:1029400043F0800313610020704700BF0020024065
:1029500038B50446FEF73EFC0546144BDB6813F021
:10296000010F0AD0B4F1FF3FF7D024B1FEF732FCDB
:10297000401BA042F1D9032012E00C4BDB6813F09E
:10298000200F02D0094B2022DA60084BDB6813F0DD
:10299000100F06D1054BDB6813F0040F01D10020A6
:1029A00038BDFFF793FF0120FAE700BF0020024087
:1029B0002DE9F8431E46234B1B7E012B40D00446D5
:1029C0000F4690461F4B01221A764CF25030FFF70B
:1029D000BFFF034670BB012C29D0022C24D04FF03E
:1029E00004091C464C4525D22101C1F12002A1F168
:1029F000200328FA01F106FA02F2114326FA03F342
:102A0000194389B207EB4400FFF752FF4CF25030F4
:102A1000FFF79EFF0C4B1D6925F001051D61034664
:102A200040B90134E4B2DDE74FF00209D9E74FF0D5
:102A30000109D6E7034A002111761846BDE8F8835C
:102A40000223FAE7E009002000200240064B0022A2
:102A5000DA61064B1A6942F004021A611A6942F0FF
:102A600040021A61704700BFE009002000200240C8
:102A7000064B0022DA61064B1A6942F002021A6123
:102A800058611A6942F040021A617047E00900205B
:102A900000200240264B1B7E012B45D070B5054619
:102AA0000E46234B01221A760368934220D04CF243
:102AB0005030FFF74DFF88BB4FF0FF3333606C6839
:102AC0000121AA686B6803EBC223A34227D92046E1
:102AD000FFF7CEFF4CF25030FFF73AFF154A13696B
:102AE00023F0020313610146B0B904F50064E8E77E
:102AF0004CF25030FFF72CFF08B101210FE0FFF737
:102B0000A5FF4CF25030FFF723FF0146094A136935
:102B100023F00403136102E0346000E00121044B60
:102B200000221A76084670BD02210846704700BF91
:102B3000E009002000200240F0B482B0002236E01C
:102B4000032400E00024B4403C430235584E46F8CC
:102B50002540584C2568DC4325EA03064F6817F4E6
:102B6000803F01D043EA0506524D2E606D6804EAAD
:102B700005064F6817F4003F01D043EA05064D4DA6
:102B80006E60AD6804EA05064F6817F4801F01D037
:102B900043EA0506474DAE60ED682C404E6816F4DA
:102BA000001F01D043EA0504424BDC6001320B6890
:102BB00033FA02F479D0012494402340F6D04D68D2
:102BC000022D01D0122D10D1D608083650F826C09B
:102BD00002F00705AF000F25BD402CEA050C0D697A
:102BE000BD4045EA0C0540F82650D0F800C056001C
:102BF0000325B540EF432CEA050C4D6805F00305AD
:102C0000B54045EA0C0505604D6805F1FF3CBCF197
:102C1000010F03D9112D01D0122D10D1856807EABB
:102C2000050CCD68B54045EA0C058560456825EA88
:102C300004044D68C5F30015954025434560C468FC
:102C400027408C68B4403C43C4604C6814F0805FFB
:102C5000ACD0194CA56945F00105A561A46904F043
:102C600001040194019C9508AE1C114C54F8267087
:102C700002F00304A6000F24B44027EA0407B0F1D1
:102C8000904F3FF45FAF0D4CA0420AD004F5806432
:102C9000A04208D004F58064A0423FF451AF05245F
:102CA00051E701244FE702244DE702B0F0BC704722
:102CB00000000140000401400010024000040048F0
:102CC0000AB1816170478162704743690B4202D04B
:102CD000090481617047816170470000002800F09D
:102CE000018370B582B00446036813F0010F3BD036
:102CF000B54B5B6803F00C03042B1ED0B24B5B6832
:102D000003F00C03082B13D06368B3F5803F68D041
:102D1000002B40F0928003F1804303F504331A68DE
:102D200022F480321A601A6822F480221A605DE070
:102D3000A54B5B6813F4803FE6D04FF4003393FA61
:102D4000A3F3A14B19684FF4003393FAA3F3B3FA3A
:102D500083F303F01F03012202FA03F30B4203D0B3
:102D60006368002B00F0C082236813F0020F00F0AC
:102D7000C580954B5B6813F00C0F00F09C80924B64
:102D80005B6803F00C03082B00F08F802369002B95
:102D900000F0F280012292FAA2F3B3FA83F303F176
:102DA000845303F584139B001A60FEF713FA05465B
:102DB000022393FAA3F3844B1968022393FAA3F333
:102DC000B3FA83F303F01F03012202FA03F30B4269
:102DD00040F0C380FEF7FEF9401B0228E8D903202B
:102DE0008BE2794A136843F480331360764AD36ADE
:102DF00023F00F03A1680B43D3626368002B36D026
:102E0000FEF7E8F905464FF4003393FAA3F36E4B4F
:102E100019684FF4003393FAA3F3B3FA83F303F082
:102E20001F03012202FA03F30B429DD1FEF7D2F9F0
:102E3000401B6428E7D903205FE2B3F5A02F09D037
:102E4000614B1A6822F480321A601A6822F48022D8
:102E50001A60CBE703F18043A3F53C331A6842F4D0
:102E600080221A601A6842F480321A60BEE7FEF7C8
:102E7000B1F905464FF4003393FAA3F3524B1968A6
:102E80004FF4003393FAA3F3B3FA83F303F01F0371
:102E9000012202FA03F30B423FF466AFFEF79AF900
:102EA000401B6428E6D9032027E2474B5B6813F4F4
:102EB000803F7FF46BAF022393FAA3F3424B196870
:102EC000022393FAA3F3B3FA83F303F01F0301225F
:102ED00002FA03F30B4203D02369934240F00682C7
:102EE0003948036823F0F8036169F82292FAA2F2E4
:102EF000B2FA82F201FA02F213430360236813F07C
:102F0000080F00F08D80A369002B61D0012191FA98
:102F1000A1F2B2FA82F22D4B13449B001960FEF726
:102F200059F90546022393FAA3F293FAA3F293FA0E
:102F3000A3F2254A516A93FAA3F3B3FA83F303F099
:102F40001F03012202FA03F30B4269D1FEF742F993
:102F5000401B0228E6D90320CFE11B48036823F079
:102F6000F8036169F82292FAA2F2B2FA82F201FA47
:102F700002F213430360C1E7012393FAA3F3B3FA08
:102F800083F303F1845303F584139B0000221A603A
:102F9000FEF720F90546022393FAA3F30A4B1968BA
:102FA000022393FAA3F3B3FA83F303F01F0301227E
:102FB00002FA03F30B42A1D0FEF70CF9401B0228E2
:102FC000E9D9032099E100BF001002402081901050
:102FD000012292FAA2F2B2FA82F2B74B13449B009A
:102FE00000221A60FEF7F6F80546022393FAA3F2D0
:102FF00093FAA3F293FAA3F2B04A516A93FAA3F3B5
:10300000B3FA83F303F01F03012202FA03F30B4226
:1030100006D0FEF7DFF8401B0228E6D903206CE15A
:10302000236813F0040F00F0A980A44BDB6913F0B0
:10303000805F0BD1A14BDA6942F08052DA61DB6923
:1030400003F080530193019B012500E000259C4B78
:103050001B6813F4807F10D0E368012B21D063BB81
:1030600003F1804303F504331A6A22F001021A6265
:103070001A6A22F004021A6218E0914A136843F4B3
:1030800080731360FEF7A6F806468D4B1B6813F499
:10309000807FE1D1FEF79EF8801B6428F5D90320DC
:1030A0002BE1864A136A43F001031362E368002BA5
:1030B0003CD0FEF78FF806462EE0052B09D07F4B5B
:1030C0001A6A22F001021A621A6A22F004021A62D3
:1030D000ECE77A4B1A6A42F004021A621A6A42F06A
:1030E00001021A62E2E7022393FAA3F3734B596ACF
:1030F000022393FAA3F3B3FA83F303F01F0301222D
:1031000002FA03F3194238D1FEF764F8801B41F24A
:103110008833984200F2EC80022393FAA3F293FAE8
:10312000A3F3002BDFD0654B196AE1E7FEF752F8F5
:10313000064618E0022393FAA3F3604B596A022370
:1031400093FAA3F3B3FA83F303F01F03012202FA05
:1031500003F3194211D0FEF73DF8801B41F288338A
:10316000984200F2C780022393FAA3F293FAA3F3E2
:10317000002BDFD0514B196AE1E7B5BBE369002BA7
:1031800000F0BA804D4A526802F00C02082A00F0A2
:103190009980022B2FD04FF0807393FAA3F3B3FAE8
:1031A00083F303F1845303F584139B0000221A6018
:1031B000FEF710F804464FF0007393FAA3F33F4B69
:1031C00019684FF0007393FAA3F3B3FA83F303F093
:1031D0001F03012202FA03F319426BD0FDF7FAFF35
:1031E000001B0228E7D9032087E0344AD36923F083
:1031F0008053D361C2E74FF0807393FAA3F3B3FA1D
:1032000083F303F1845303F584139B0000221A60B7
:10321000FDF7E0FF05464FF0007393FAA3F3274B49
:1032200019684FF0007393FAA3F3B3FA83F303F032
:103230001F03012202FA03F3194206D0FDF7CAFF69
:10324000401B0228E7D9032057E01C494B6823F4B0
:103250007413626A206A024313434B604FF0807319
:1032600093FAA3F3B3FA83F303F1845303F58413BE
:103270009B0001221A60FDF7ADFF04464FF000737A
:1032800093FAA3F30D4B19684FF0007393FAA3F36D
:10329000B3FA83F303F01F03012202FA03F3194286
:1032A00006D1FDF797FF001B0228E7D9032024E091
:1032B000002022E0002020E0208190100010024039
:1032C00000700040012B1AD0104B5B6803F4803172
:1032D000226A914215D103F47013626A934212D1AB
:1032E00000200AE001207047012006E0012004E0F0
:1032F000032002E0032000E0002002B070BD0120A6
:10330000FBE70120F9E70120F7E700BF00100240CA
:10331000164B5B6803F00C02082A01D01448704772
:1033200003F470114FF4701292FAA2F2B2FA82F220
:1033300021FA02F20F49885C0C4AD26A02F00F02AD
:103340000F2191FAA1F1B1FA81F1CA400A498A5CD0
:1033500013F4803F05D0064BB3FBF2F300FB03F000
:103360007047064B03FB00F0704700BF001002409F
:1033700000127A0078D2000888D2000800093D00C7
:10338000002800F0BE8070B50D460446614B1B68F6
:1033900003F007038B420BD25E4A136823F0070346
:1033A0000B431360136803F007038B4240F0AB80BC
:1033B000236813F0020F06D0574A536823F0F00336
:1033C000A1680B435360236813F0010F5AD0636860
:1033D000012B2DD0022B40D0022292FAA2F24E4AAB
:1033E0001068022292FAA2F2B2FA82F202F01F02EE
:1033F000012101FA02F2104200F0878046494A6832
:1034000022F0030213434B60FDF7E4FE0646424BF5
:103410005B6803F00C036268B3EB820F32D0FDF7F8
:10342000D9FE801B41F288339842F0D9032067E02F
:103430004FF4003292FAA2F2374A10684FF4003289
:1034400092FAA2F2B2FA82F202F01F02012101FA0C
:1034500002F20242D2D1012052E04FF0007292FA01
:10346000A2F22D4A10684FF0007292FAA2F2B2FA5C
:1034700082F202F01F02012101FA02F21042BDD1D4
:1034800001203DE0234B1B6803F00703AB420AD940
:10349000204A136823F007032B431360136803F0DB
:1034A0000703AB4233D1236813F0040F06D01A4A46
:1034B000536823F4E063E1680B435360236813F01F
:1034C000080F07D0144A536823F46053216943EA74
:1034D000C1035360FFF71CFF0F4B5B6803F0F00361
:1034E000F02292FAA2F2B2FA82F2D3400B4AD35CF3
:1034F000D8400B4B18600B4B186803F0D7F900202D
:1035000070BD012070470120FAE70120F8E7012093
:10351000F6E700BF002002400010024060E3000810
:103520000800002004000020014B1868704700BF0D
:103530000800002008B5FFF7F7FF074B5B6803F4AE
:10354000E0634FF4E06292FAA2F2B2FA82F2D34060
:10355000024AD35CD84008BD0010024070E3000866
:1035600008B5FFF7E1FF074B5B6803F460534FF4C6
:10357000605292FAA2F2B2FA82F2D340024AD35CCB
:10358000D84008BD0010024070E300080F2303601C
:103590000B4B5A6802F0030242605A6802F0F002D4
:1035A00082605A6802F4E062C2605B68DB0803F480
:1035B000E0630361034B1B6803F007030B60704774
:1035C0000010024000200240F0B583B004460368BA
:1035D00013F4803F44D0624BDB6913F0805F78D1F5
:1035E0005F4BDA6942F08052DA61DB6903F08053A5
:1035F0000193019B01255B4B1B6813F4807F6AD00C
:10360000574B1B6A13F4407321D0626802F4407276
:103610009A421CD05248016A21F440764FF480331C
:1036200093FAA3F2B2FA82F24F4F3A4492004FF06B
:10363000010CC2F800C093FAA3F3B3FA83F33B443E
:103640009B0000221A60066211F0010F57D1444A14
:10365000136A23F4407361680B431362002D74D125
:10366000236813F0010F06D03D4A136B23F00303C8
:10367000A1680B431363236813F0200F06D0384A68
:10368000136B23F01003E1680B431363236813F0FB
:10369000800F06D0324AD36A23F4F87321690B43B2
:1036A000D362236813F4805F06D02D4A136B23F492
:1036B000807361690B431363236813F4804F4BD00D
:1036C000274A136B23F48053A1690B431363002033
:1036D00043E000258FE7234A136843F480731360A7
:1036E000FDF778FD06461F4B1B6813F4807F87D1DA
:1036F000FDF770FD801B6428F5D903202DE0FDF750
:1037000069FD064617E0022393FAA3F3144B596AA6
:10371000022393FAA3F3B3FA83F303F01F03012206
:1037200002FA03F30B4292D1FDF754FD801B41F2E4
:10373000883398420ED8022393FAA3F293FAA3F3A4
:10374000002BE0D0064B196AE2E7D36923F08053DF
:10375000D36185E7032000E0002003B0F0BD00BF87
:1037600000100240007000400081901030B4036AE5
:1037700023F001030362036A4468826922F4803201
:1037800022F073020D682A4323F002038D682B4355
:10379000184DA8420BD005F5A055A84207D005F555
:1037A0008065A84203D005F58065A84205D123F0C5
:1037B0000803CD682B4323F004030E4DA8420BD021
:1037C00005F5A055A84207D005F58065A84203D0AD
:1037D00005F58065A84205D124F440754C692C4359
:1037E0008D692C43446082614A684263036230BC45
:1037F000704700BF002C014030B4036A23F480738B
:103800000362036A4468C26922F4803222F07302C0
:103810000D682A4323F400738D6843EA0523144D91
:10382000A8421DD0124DA8420BD005F5A055A842C4
:1038300007D005F58065A84203D005F58065A8424C
:1038400007D124F440544D6944EA05148D6944EAD3
:1038500005144460C2614A68C263036230BC7047A9
:1038600023F40063CD6843EA052323F48063D9E79A
:10387000002C014030B4036A23F480530362026ACF
:103880004468C36923F0807323F4E6430D6843EA78
:10389000052322F400528D6842EA05320D4DA842FC
:1038A0000BD005F5A055A84207D005F58065A842C4
:1038B00003D005F58065A84204D124F480444D6905
:1038C00044EA85144460C3614B680364026230BCFF
:1038D000704700BF002C014030B4036A23F48033EA
:1038E0000362036A4468426D22F4803222F070025F
:1038F0000D682A4323F400338D6843EA05430D4DD8
:10390000A8420BD005F5A055A84207D005F5806563
:10391000A84203D005F58065A84204D124F4803480
:103920004D6944EA0524446042654A688265036241
:1039300030BC7047002C014030B4036A23F480137C
:103940000362026A4468436D23F0807323F4E0430A
:103950000D6843EA052322F400128D6842EA0552FD
:103960000D4DA8420BD005F5A055A84207D005F58E
:103970008065A84203D005F58065A84204D124F4EF
:1039800080244D6944EA8524446043654B68C365DF
:10399000026230BC704700BF002C0140022380F857
:1039A0003D3002689168084B0B40062B06D0B3F5FA
:1039B000803F03D0136843F001031360012380F8B4
:1039C0003D300020704700BF070001000268D36847
:1039D00043F00103D36002689168064B0B40062B4D
:1039E00006D0B3F5803F03D0136843F001031360A2
:1039F000002070470700010070477047704770470C
:103A000010B5044603681A6912F0020F11D0DA6883
:103A100012F0020F0DD06FF002021A61012303773A
:103A200003689B6913F0030F79D0FFF7E6FF0023CB
:103A3000237723681A6912F0040F12D0DA6812F0A3
:103A4000040F0ED06FF004021A610223237723685B
:103A50009B6913F4407F68D02046FFF7CEFF002318
:103A6000237723681A6912F0080F12D0DA6812F06F
:103A7000080F0ED06FF008021A6104232377236821
:103A8000DB6913F0030F57D02046FFF7B6FF002382
:103A9000237723681A6912F0100F12D0DA6812F037
:103AA000100F0ED06FF010021A61082323772368DD
:103AB000DB6913F4407F46D02046FFF79EFF0023CA
:103AC000237723681A6912F0010F03D0DA6812F025
:103AD000010F3FD123681A6912F0800F03D0DA6812
:103AE00012F0800F3DD123681A6912F4807F03D051
:103AF000DA6812F0800F3BD123681A6912F0400F88
:103B000003D0DA6812F0400F39D123681A6912F035
:103B1000200F03D0DA6812F0200F37D110BDFFF765
:103B20006BFF2046FFF76AFF81E72046FFF764FF3F
:103B30002046FFF763FF92E72046FFF75DFF204630
:103B4000FFF75CFFA3E72046FFF756FF2046FFF78D
:103B500055FFB4E76FF001021A61204602F0E4F865
:103B6000B8E76FF080021A61204600F02EFABAE73B
:103B70006FF480721A61204600F028FABCE76FF0FB
:103B800040021A612046FFF73AFFBEE76FF02002BD
:103B90001A61204600F018FAC0E700000368224AC4
:103BA000904206D0B0F1804F03D0A2F594329042FB
:103BB00003D123F070034A6813431B4A904212D08A
:103BC000B0F1804F0FD0A2F5943290420BD002F5A5
:103BD0009E32904207D002F58062904203D002F5F7
:103BE0008062904203D123F44073CA68134323F0E8
:103BF00080034A69134303608B68C3620B68836266
:103C0000094B98420BD003F5A053984207D003F517
:103C10008063984203D003F58063984201D10B6919
:103C20000363012343617047002C0140B0B110B51C
:103C3000044690F83D3063B1022384F83D302146BC
:103C400051F8040BFFF7AAFF012384F83D30002050
:103C500010BD80F83C3002F049FFEDE701207047CD
:103C6000B0B110B5044690F83D3063B1022384F83A
:103C70003D30214651F8040BFFF790FF012384F8F3
:103C80003D30002010BD80F83C3002F00FFFEDE722
:103C90000120704730B4036A23F010030362036A03
:103CA0004468826922F0807222F4E6420D6842EA9A
:103CB000052223F020038D6843EA0513144DA84222
:103CC0001DD0134DA8420BD005F5A055A84207D032
:103CD00005F58065A84203D005F58065A84207D1A7
:103CE00024F440644D6944EA85048D6944EA8504FE
:103CF000446082614A688263036230BC704723F08B
:103D00008003CD6843EA051323F04003D9E700BFE1
:103D1000002C014038B590F83C30012B00F0928027
:103D200004460D46012380F83C30022380F83D30E4
:103D3000142A1ED8DFE802F00B1D1D1D241D1D1DB9
:103D4000381D1D1D4B1D1D1D5F1D1D1D72000068B2
:103D5000FFF70CFD2268936943F008039361226822
:103D6000936923F0040393612268936929690B43E3
:103D70009361012384F83D30002084F83C0038BD75
:103D80000068FFF787FF2268936943F4006393613B
:103D90002268936923F48063936122689369296997
:103DA00043EA01239361E4E70068FFF725FD2268F9
:103DB000D36943F00803D3612268D36923F0040375
:103DC000D3612268D36929690B43D361D1E70068C5
:103DD000FFF750FD2268D36943F40063D361226882
:103DE000D36923F48063D3612268D369296943EAE4
:103DF0000123D361BDE70068FFF76EFD2268536DB4
:103E000043F0080353652268536D23F004035365A0
:103E10002268536D29690B435365AAE70068FFF7D1
:103E20008BFD2268536D43F4006353652268536D24
:103E300023F4806353652268536D296943EA0123A3
:103E4000536596E702209AE710B401F01F010123A1
:103E500003FA01F4036A23EA04030362036A02FA21
:103E600001F10B4303625DF8044B704710B5044643
:103E700001220068FFF7E8FF2368114A93420BD044
:103E800002F5A052934207D002F58062934203D01C
:103E900002F58062934203D15A6C42F400425A64A4
:103EA00022689168074B0B40062B06D0B3F5803F84
:103EB00003D0136843F001031360002010BD00BF5E
:103EC000002C01400700010090F83C30012B33D05A
:103ED00030B4012380F83C30022380F83D30026882
:103EE00053689568154CA24221D023F070030C68EA
:103EF000234353600368114A93420AD0B3F1804FC1
:103F000007D0A2F59432934203D002F59E32934239
:103F100004D125F080058A6815439D60012380F84F
:103F20003D30002380F83C30184630BC704723F405
:103F300070034C682343D8E702207047002C0140EF
:103F400090F83C30012B3BD010B4012380F83C307A
:103F5000CB6823F440738A68134323F480634A6870
:103F6000134323F400630A68134323F480530A695C
:103F7000134323F400534A69134323F480438A6AAA
:103F8000134323F470238A6943EA024302680D4C09
:103F9000A24207D05364002380F83C3018465DF8F5
:103FA000044B704723F470034C6A43EA045323F034
:103FB0008073CC69234323F00073096A0B43E9E75C
:103FC00002207047002C014070477047704702681C
:103FD000136823F0C003136020234367704702680F
:103FE000136823F4907313600268936823F001034D
:103FF000936020238367002303667047836F202B21
:104000005AD100295AD0002A5AD090F87030012B8A
:1040100058D0012380F870304165A0F85820A0F8EE
:104020005A20002303668368B3F5805F06D0A3B9E6
:10403000036973B9FF23A0F85C3014E0036923B966
:1040400040F2FF13A0F85C300DE0FF23A0F85C30D5
:1040500009E07F23A0F85C3005E0B3F1805F1BD05E
:104060000023A0F85C300023C36722238367026823
:10407000936843F0010393608368B3F5805F15D0C4
:10408000114B0366002380F8703001680A6842F41F
:1040900090720A601846704703691BB97F23A0F825
:1040A0005C30E0E73F23A0F85C30DCE70369002BDD
:1040B000E6D1064B0366E5E7022070470120704712
:1040C0000120704702207047CB4100082F420008B2
:1040D000436F202B40D110B5044600293ED0002A62
:1040E0003ED090F87030012B3CD0012380F8703026
:1040F000C164A0F85020A0F852200023C3672123F8
:104100004367836EE3B118499962836E1749D96298
:10411000836E17491963836E002159630168134642
:1041200001F12802C16C806EFEF708FB40B110233C
:10413000E367002384F870302023636701200AE0DE
:10414000236840221A62002084F870002268936875
:1041500043F08003936010BD022070470120FAE70E
:104160000120F8E70220F6E777410008C141000886
:1041700093420008704708B5436A8269202A0DD02F
:104180000022A3F8522019688A6822F080028A600F
:104190001A68136843F04003136008BD1846FFF720
:1041A000E9FFFAE708B501680A6822F040020A60F0
:1041B0002022426700224266FFF7DCFF08BD7047FD
:1041C00008B5406AFFF7FBFF08BD08B5B0F85C30E2
:1041D000826F222A05D00268936943F00803936135
:1041E00008BD0268918CDBB2426D0B401370436DC9
:1041F00001334365B0F85A309BB2013B9BB2A0F843
:104200005A30B0F85A309BB2002BE9D102681368DB
:1042100023F4907313600268936823F001039360A2
:10422000202383670023036601F034F9D8E708B53B
:10423000B0F85C30826F222A05D00268936943F09F
:104240000803936108BD0268918C426D0B40138096
:10425000436D02334365B0F85A309BB2013B9BB2C9
:10426000A0F85A30B0F85A309BB2002BEAD102685D
:10427000136823F4907313600268936823F00103BA
:104280009360202383670023036601F003F9D9E7D5
:10429000704738B5446A626FA56F23689B6813F056
:1042A000800F01D0212A0ED023689B6813F0400FA5
:1042B00001D0222D0ED0E36F43F01003E3672046B8
:1042C000FFF7E6FF38BD0023A4F852302046FFF781
:1042D0007EFEE9E70023A4F85A302046FFF77FFE70
:1042E000E9E7000038B504460168CB6908688D68C5
:1042F00040F60F021A4005D113F0200F02D010F043
:10430000200F1CD12AB115F001021ED110F4907FAC
:104310001BD113F4801F03D015F4800F40F08E8062
:1043200013F0800F03D010F0800F40F08E8013F058
:10433000400F03D010F0400F40F08E8038BD236E48
:10434000002BFBD020469847F8E713F0010F07D069
:1043500010F4807F04D001250D62E16F2943E167ED
:1043600013F0020F07D032B1216802250D62E16F10
:1043700041F00401E16713F0040F07D032B1216866
:1043800004250D62E16F41F00201E16713F0080FAF
:1043900009D010F0200F00D12AB122680821116243
:1043A000E26F0A43E26713F4006F0AD010F0806FE7
:1043B00007D022684FF400611162E26F42F02002E0
:1043C000E267E26F002AB9D013F0200F06D010F098
:1043D000200F03D0236E0BB120469847E26F23686D
:1043E0009B6813F0400F02D112F0280F20D0204616
:1043F000FFF7F5FD23689A6812F0400F14D09A6811
:1044000022F040029A60E36E53B1154A5A63E06E9F
:10441000FEF7CEF9002891D0E06E436B98478DE708
:104420002046FFF735FF89E72046FFF731FF85E794
:104430002046FFF72DFF0023E3677FE74FF480134B
:104440000B62204600F01BFB78E7636E002B3FF405
:1044500075AF2046984771E72046FFF7A3FE6DE74A
:104460006544000808B5406A0023A0F85A30A0F857
:104470005230FFF70DFF08BD38B504468368026966
:10448000134342691343C2691343016808686C4AC5
:10449000024013430B602268536823F44053E168E1
:1044A0000B435360A269236A1A4321688B6823F483
:1044B000306313438B602368624A934215D0624A8B
:1044C000934228D002F58062934220D01025E36900
:1044D000B3F5004F21D0082D00F2A680DFE805F0EB
:1044E0006B7C86A491A4A4A49B00584B1B6B03F087
:1044F0000303032B09D8DFE803F00204060C0025B0
:10450000E5E70425E3E70825E1E71025DFE70025D7
:10451000DDE70225DBE70025D9E7082D48D8DFE8ED
:1045200005F0051D2847334747473E00FFF702F8CF
:104530006268530803EB4003B3FBF2F39BB2A3F1B1
:1045400010014FF6EF72914271D89AB222F00F0229
:10455000C3F3420313432268D3606BE0FFF700F814
:104560006268530803EB4003B3FBF2F39BB20025F0
:10457000E5E76268530803F5740303F51053B3FBD2
:10458000F2F39BB20025DAE7FEF7C2FE6268530839
:1045900003EB4003B3FBF2F39BB20025CFE7626865
:1045A000530803F58033B3FBF2F39BB20025C6E753
:1045B00001250023C3E7FEF7BDFF626800EB52034D
:1045C000B3FBF2F39BB2A3F110014FF6EF729142ED
:1045D0002FD82268D3602DE0FEF7C2FF626800EB9F
:1045E0005203B3FBF2F39BB20025ECE76268530879
:1045F00003F5F40303F59053B3FBF2F39BB20025EC
:10460000E1E7FEF785FE626800EB5203B3FBF2F3CD
:104610009BB20025D7E76268530803F50043B3FB5C
:10462000F2F39BB20025CEE701250023CBE701255D
:1046300000E00125002323666366284638BD00BFDD
:10464000F369FFEF003801400044004000100240D1
:10465000436A13F0010F06D00268536823F4003355
:10466000816A0B435360436A13F0020F06D002685D
:10467000536823F48033C16A0B435360436A13F0D9
:10468000040F06D00268536823F48023016B0B43A8
:104690005360436A13F0080F06D00268536823F48E
:1046A0000043416B0B435360436A13F0100F06D075
:1046B0000268936823F48053816B0B439360436AD1
:1046C00013F0200F06D00268936823F40053C16BE7
:1046D0000B439360436A13F0400F0AD0026853689B
:1046E00023F48013016C0B435360036CB3F5801FFC
:1046F0000BD0436A13F0800F06D00268536823F48E
:104700000023816C0B43536070470268536823F4A5
:10471000C003416C0B435360EBE72DE9F8430546BA
:104720000F4616469946DDF820802C68E46937EA82
:1047300004030CBF01240024B4423CD1B8F1FF3F74
:10474000F3D0FCF747FDA0EB0900404521D8B8F1B4
:10475000000F1ED02B681A6812F0040FE5D0DA693A
:1047600012F4006FE1D04FF400621A622A681368F5
:1047700023F4D07313602A68936823F001039360D5
:1047800020236B67AB67EB67002385F8703003204D
:1047900012E02A68136823F4D07313602A689368C0
:1047A00023F00103936020236B67AB67002385F838
:1047B0007030032000E00020BDE8F8832DE9F041CF
:1047C00082B01E46436F202B55D104460D469046BD
:1047D000002954D0002A54D090F87030012B52D0C8
:1047E000012380F870300023C36721234367FCF75F
:1047F000F1FC0746A4F85080A4F85280A368B3F5F2
:10480000805F02D04FF0000814E0236913B14FF02D
:1048100000080FE0A84600250CE038F8023B2268AB
:10482000C3F308031385B4F8522092B2013A92B24E
:10483000A4F85220B4F852309BB273B100963B46B4
:10484000002280212046FFF768FFF0B9002DE4D058
:10485000236815F8012B1A85E5E700963B460022F0
:1048600040212046FFF759FF88B9202363670023C2
:1048700084F8703000E0022002B0BDE8F081012031
:10488000FAE70120F8E70220F6E70320F4E7032027
:10489000F2E72DE9F04383B01E46836F202B7BD1D6
:1048A00004460D46904600297AD0002A7AD090F826
:1048B0007030012B78D0012380F870300023C3675B
:1048C00022238367FCF786FC0746A4F85880A4F8E7
:1048D0005A80A368B3F5805F06D0A3B9226972B984
:1048E000FF22A4F85C2014E0226922B940F2FF12F2
:1048F000A4F85C200DE0FF22A4F85C2009E07F22F0
:10490000A4F85C2005E0B3F1805F0AD00022A4F88F
:104910005C20B4F85C80B3F5805F0CD04FF00009E8
:104920001EE022691AB97F22A4F85C20F1E73F2239
:10493000A4F85C20EDE7236913B14FF000090FE004
:10494000A94600250CE023689B8C08EA030329F89C
:10495000023BB4F85A2092B2013A92B2A4F85A201B
:10496000B4F85A309BB28BB100963B46002220210E
:104970002046FFF7D2FEC8B9002DE4D023689A8CF8
:104980005FFA88F3134005F8013BE2E72023A367B1
:10499000002084F8700000E0022003B0BDE8F0833E
:1049A0000120FAE70120F8E70220F6E70320F4E708
:1049B00030B583B004460023C367FCF70BFC054603
:1049C00023681B6813F0080F0CD123681B6813F0D1
:1049D000040F15D120236367A367002084F87000BB
:1049E00003B030BD6FF07E430093034600224FF4C6
:1049F00000112046FFF791FE0028E6D00320EFE7E4
:104A00006FF07E4300932B4600224FF48001204636
:104A1000FFF783FE0028DDD00320E1E768B310B57F
:104A20000446436F03B3242363672268136823F0AB
:104A3000010313602046FFF71FFD012813D0636AAE
:104A4000BBB92268536823F490435360226893688B
:104A500023F02A0393602268136843F00103136074
:104A60002046FFF7A5FF10BD80F8703002F03EF938
:104A7000D9E72046FFF7ECFDE3E7012070477047D8
:104A8000DFED0F7AB4EEE70AF1EE10FA04DDDFEDA8
:104A90000C7A30EE670AF3E7B0EE677AC0EE077A79
:104AA000B0EE677ABEEEEB7A17EE103A054A82ED69
:104AB000007A054A02EB830393ED000A704700BFBA
:104AC000DB0FC940000A002098D2000808B5DFEDCE
:104AD000097AB4EEE70AF1EE10FA04DDDFED057AAB
:104AE00030EE670AF3E7DFED047A30EE270AFFF7CE
:104AF000C7FF08BDDB0FC940DB0FC93FF0EE407AAE
:104B0000B0EE600AF4EEE07AF1EE10FA01DDB0EEFC
:104B1000670A7047F0EE407AB0EE600AF4EEE07A91
:104B2000F1EE10FA01D5B0EE670A7047F0EE407A68
:104B3000B0EE410AF4EEE07AF1EE10FA07DDF4EEA1
:104B4000C17AF1EE10FA09DDB0EE670A7047F4EEB3
:104B5000C10AF1EE10FA01DDB0EE600A7047F0EE26
:104B6000407AB0EE410AF4EEE07AF1EE10FA07D5A1
:104B7000F4EEC17AF1EE10FA09D5B0EE670A70478B
:104B8000F4EEC10AF1EE10FA01D5B0EE600A7047FA
:104B900038B52DED028B05460C46B0EE408AD0EDBF
:104BA000007A27EEA77AD1ED007A67EEA77A77EE42
:104BB000277A17EE900AFBF787FC41EC100B08F000
:104BC00051FA51EC100BFBF799FF07EE900AF4EE47
:104BD000C87AF1EE10FA0FDD95ED007A27EE087A2B
:104BE000C7EE276AC5ED006A94ED000A20EE088A38
:104BF00088EE277A84ED007ABDEC028B38BD000088
:104C00002DE9704306460D46144659EC108BDFED36
:104C1000177AC7EE817A17EE900AFBF755FC4246E9
:104C20004B46FBF7A9FC0022114BFBF7EFFA0246BB
:104C30000B4600200E49FBF7C9FDFBF75FFF06EEB0
:104C4000900AD6ED007A67EEA67AB7EE007A37EED4
:104C5000667AD4ED006A27EE267A77EE877AC5ED7C
:104C6000007AC4ED007ABDE8708300BF83F9223E6C
:104C70000000F03F31EE601A30EE600A01238340FD
:104C8000013B07EE903AF8EEE77A60EE277A87EE7E
:104C9000817AFDEEC77A17EE900A704707EE900A08
:104CA00070EEC00AF8EEE77A67EEA00A01238B40A7
:104CB000013B07EE903AF8EEE77A80EEA77A37EEFE
:104CC000000A704738B50446002545608560C56018
:104CD0000AE000212068FCF7F1FC214651F8040BA2
:104CE0000322FCF753FC0135022DF2DDD4ED017AED
:104CF000B8EE677A9FED0F6A27EE067ADFED0E6A4F
:104D000027EE267A84ED067AD4ED027AB8EE677A39
:104D100027EE067A27EE267A84ED047AD4ED037A1C
:104D2000F8EE677A67EE867A67EEA67AC4ED057AC2
:104D300038BD00BF333353400000803910B50446FE
:104D40000023C36103620361436183614362836241
:104D500000210068FCF7B2FC2046FFF7B3FF23698F
:104D6000E3616369236210BD08B5034B19600860F5
:104D70001868FFF7E3FF08BD040A0020D0ED087AA9
:104D800090ED057A77EEC77A9FED047A87EE870A71
:104D9000DFED037A80EE270A704700BF0000204253
:104DA0008FC2F53BD0ED077A90ED047A77EEC77AA3
:104DB0009FED047A87EE870ADFED037A80EE270AFB
:104DC000704700BF000020428FC2F53B0023036004
:104DD000436083600023C360036143617047000048
:104DE00038B52DED068BB0EE40AAB0EE608AF0EE3D
:104DF000419AB0EE619A05460C46FFF767FEF0EE69
:104E0000408AB0EE4A0AFFF73BFE28EE887ADFEDD3
:104E10001C1A60EE217AB6EE006A68EE865A77EECA
:104E2000E57A67EEA97A37EE277ADFED167A60EE3B
:104E3000276A76EEE56A66EE896A37EE267ADFED56
:104E4000126A27EE267A85ED007A20EE488A68EE0F
:104E5000A77A20EE060A77EEC07A27EEA91A38EE76
:104E6000418A68EEA18A78EEC08A68EE891A38EE27
:104E7000618A28EE268A84ED008ABDEC068B38BD57
:104E8000D7B35D3FD7B35DBFABAA2A3F70B52DED59
:104E9000048BF0EE409AB0EE609AF0EE418A06463E
:104EA0000D461446FFF712FEB0EE408AB0EE690AD6
:104EB000FFF7E6FD68EE097A20EE287A77EEC77AEA
:104EC000C6ED007A9FED166A20EE067AB6EE001A5D
:104ED00068EE010A37EE607A27EE097ADFED117A83
:104EE00068EE276A20EE011A76EEC16A66EEA86ABD
:104EF00037EE667A85ED007A60EE277A77EEE07A13
:104F000067EE890A28EE068A38EE418A28EE281ACA
:104F100030EEC11A84ED001ABDEC048B70BD00BFE9
:104F2000D7B35D3FD7B35DBF10B52DED088B0446F9
:104F3000B0EE40AAF0EE609AB0EE419AFFF70FFE95
:104F4000F0EE408AB0EE491AF0EE690AB0EE4A0A75
:104F5000FFF7ECFD78EE808AF6EE00AA28EEAA8A2A
:104F60003AEE48AAB3EE07BA8AEE0B0A9FED19AAE9
:104F7000F0EE4A0A30EE2A0AFFF7C0FDDFED168A8E
:104F8000F0EE680AFFF7C6FD84ED000A79EEC89AD4
:104F900089EE8B0AF0EE4A0A30EE2A0AFFF7AEFDE0
:104FA000F0EE680AFFF7B6FD84ED010A39EE488A93
:104FB00088EE0B0AF0EE4A0A30EE2A0AFFF79EFD51
:104FC000F0EE680AFFF7A6FD84ED020ABDEC088B3F
:104FD00010BD00BF00000000D7A3703F1170031286
:104FE00053709070704700002DE9F04106460D4661
:104FF000144610209FED211ADFED210A92ED1E0AC2
:10500000FFF738FE804610209FED1E1ADFED1E0AC6
:1050100094ED170AFFF72EFE07461020B8EE081A87
:10502000F0EE080A94ED060AFFF724FE174B9B7872
:105030002B70032E08D8DFE806F0020C12176A1C4A
:1050400000214046FFF7CAFF104B1B782B71BDE8CB
:10505000F0816A1C01213846FFF7C0FFF4E76A1CA3
:105060000221FFF7BBFFEFE703236B7094F8A93031
:10507000AB7094F8A830EB70E6E700BF0000FAC40C
:105080000000FA4400000000DB0FC940780A00204D
:105090002DE9F04F2DED0E8BA9B014460378CC4AC4
:1050A0009578AB4200F0AB80FC2B07D0FF2B0AD0E9
:1050B000002029B0BDEC0E8BBDE8F08F40789070D9
:1050C00000F02CFAF4E7A668D4F80CA0D4F818B0D5
:1050D00094ED088AD4ED1E8A94ED1D9AD4ED179AAA
:1050E00094ED18AAD4ED19AA94ED22BAD4ED23BAFE
:1050F00094ED20CAD4ED21CA94ED25DAD4ED24DA5A
:1051000094ED26EA94F8A97094F8A880B04B93F82F
:105110000090D4ED29EA6068FBF7D6F9CDE92601C5
:105120001EEE900AFBF7D0F9CDE92401CDF8889066
:10513000CDF8848020971EEE100AFBF7C5F9CDE963
:105140001E011DEE900AFBF7BFF9CDE91C011DEE13
:10515000100AFBF7B9F9CDE91A011CEE900AFBF72A
:10516000B3F9CDE918011CEE100AFBF7ADF9CDE952
:1051700016011BEE900AFBF7A7F9CDE914011BEE0F
:10518000100AFBF7A1F9CDE912011AEE900AFBF71C
:105190009BF9CDE910011AEE100AFBF795F9CDE95C
:1051A0000E0119EE900AFBF78FF9CDE90C0119EE0B
:1051B000100AFBF789F9CDE90A0118EE900AFBF70E
:1051C00083F9CDE9080118EE100AFBF77DF9CDE966
:1051D00006015846FBF778F9CDE904015046FBF784
:1051E00073F9CDE902013046FBF76EF9CDE9000114
:1051F000DDE926232946774801F0E8FD58E74378A2
:10520000072B00F2FD80DFE803F0040B1D2F417F28
:10521000D2DC22468078FFF7E7FE0120C0B248E7E3
:105220008278C0781021DFED6C0A9FED6C0A40EAAD
:105230000220FFF733FD84ED1D0A312384F8A830E6
:105240000020EBE78278C0789FED650A1021F0EE30
:10525000400A40EA0220FFF721FD84ED190A3223BB
:1052600084F8A8300020D9E78278C0781021F0EEC9
:10527000080AB8EE080A40EA0220FFF70FFD84EDA5
:10528000080A332384F8A8300020C7E78278C6785C
:10529000057994F8A830322B08D00023C4F8943054
:1052A000C4F89030C4F898300020B7E79FED4D8ADD
:1052B0000821DFED4D0AB0EE480A1046FFF7EEFC7C
:1052C000DFED4A7A60EE277AC4ED257A0821F3EE05
:1052D000040AB0EE480A3046FFF7E0FCDFED447AFE
:1052E00060EE277AC4ED247A0821F3EE040AB0EECA
:1052F000480A2846FFF7D2FCDFED3E7A60EE277AB7
:10530000C4ED267A002089E78278C57894F8A83021
:10531000312B0CD0332B2AD00023C4F88030C4F8B2
:105320008430C4F88830C4F88C30002076E79FEDD4
:105330002D9ADFED318A0821F0EE490AB0EE680AB5
:105340001046FFF7ABFC9FED2B8A20EE080A84ED98
:10535000220A0821F0EE490AB0EE680A2846FFF753
:105360009DFC20EE080A84ED230A002056E79FEDFD
:10537000239ADFED1C8A0821F0EE490AB0EE680A94
:105380001046FFF78BFC9FED1A8A20EE080A84ED89
:10539000200A0821F0EE490AB0EE680A2846FFF715
:1053A0007DFC20EE080A84ED210A002036E7022366
:1053B00084F8A9300024064B1C7000F02BF920461D
:1053C0002CE7012384F8A93000F0DCFB002025E75E
:1053D000780A002098DA00080000FA440000FAC4B5
:1053E000DB0FC9400000000000002042CDCC4C3D46
:1053F000ACC527390AD7A33B000048C20000484289
:10540000012384F8A93000F0BDFB002006E700BFAF
:1054100008B5094900230B618B610122CA6143F67B
:10542000E07008604B608860CB600A624B614B6241
:105430000248FCF7D9FD08BD1C0A0020B80B00206B
:10544000044B00221A605A609A60DA6008221A61DE
:10545000704700BF440A0020064B40F2FF121A605A
:1054600000225A609A60DA6008221A6101221A75D5
:10547000704700BF600A002008B5054B01221A6082
:10548000FFF7C6FFFFF7DCFFFFF7E6FF08BD00BF31
:10549000180A002002680C4B9A4200D0704710B5E1
:1054A00004460A4A0A490B48FFF7F2FD28B90622CA
:1054B00008492046FEF7A2FD10BD052204492046FA
:1054C000FEF706FEF3E700BF003801400C0C002099
:1054D000100A0020080A002038B50446094D2B4662
:1054E000094A0021FCF7A3FE084A09492846FFF7AC
:1054F000CFFD00B938BD074B054A07492046FCF7E8
:1055000020FEF7E7080A0020440A00200C0C0020C7
:10551000100A0020180A0020600A002070B584B02C
:10552000044600250095FDF7EFF90195084E029617
:1055300001250395694601A8FDF7ACFAE2B2002304
:1055400031462846FDF734FAFDF7F8F904B070BD8E
:10555000F8FF00080D4BC0F884300D4BC0F88030C8
:105560000C4BC0F88C300C4BC0F888304FF07E5399
:10557000C0F89430094BC0F89030094BC0F898300F
:1055800000234367074B4366704700BFACC5A7398C
:1055900017B7513BCCCCCCBCCCCC4CBDACC527391F
:1055A000CCCC4C3DDB0F494070B504460E4600257F
:1055B00045608560C560456205628561C56185623B
:1055C000C562056345638563C56305644564856499
:1055D000C564056545658565C565056645660567F8
:1055E00045678567C56700F087FD84ED1A0AC4F832
:1055F0009C500023C4F8A030302384F8A830012345
:1056000084F8A93026603046FFF7E0FB2046FFF71C
:10561000A1FF70BD10B5094C012210212046FDF7F5
:105620004FFB01224FF400414FF09040FDF748FB43
:10563000002208212046FDF743FB10BD000400486E
:1056400008B500224FF400414FF09040FDF738FBC1
:1056500008BD70B52DED068BB0EE409A04461E468F
:1056600011EE105A91ED008AD2ED007A38EE678A79
:1056700068EE200AD0ED008A70EEA88A11EE100ABA
:10568000FAF722FF41EC1A0B18EE900AFAF71CFF0A
:10569000B0EE4A1AF0EE6A1A41EC100B07F07EFCED
:1056A000B0EE40AAF0EE60AA85F00040FAF70CFFD9
:1056B00041EC110BB0EE4A0AF0EE6A0A07F046FC24
:1056C00051EC100BFBF71AFA07EE900A206028EE57
:1056D000098A77EE887AC6ED007ABDEC068B70BD3C
:1056E000F8B52DED0C8BB0EE409AB0EE41CA0446F1
:1056F0000D46F0EE618A174612EE106AF0EE629ADD
:1057000061EEA00A91ED008A30EE888A12EE100A4E
:10571000FAF7DAFE41EC1B0B18EE100AFAF7D4FE8A
:10572000B0EE4B1AF0EE6B1A41EC100B07F036FCA2
:10573000B0EE40DAF0EE60DA86F00040FAF7C4FE30
:1057400041EC1A0B41EC110BB0EE4D0AF0EE6D0A74
:1057500007F0FCFB51EC100BFBF7D0F908EE100A38
:105760002860D4ED007A78EEE77A27EE8C1AC1EE45
:10577000297A17EE900AFAF7A7FEB0EE4B1AF0EE70
:105780006B1A41EC100B07F009FCB0EE4A1AF0EE70
:105790006A1A07F0DBFB51EC100BFBF7AFF907EED1
:1057A000900A28EE899A38EE098A38EE278A87ED22
:1057B000008AC4ED008ABDEC0C8BF8BD08B5034629
:1057C000D0ED171AD0ED197A71EEE71ADFED0E7AE7
:1057D000F4EEE71AF1EE10FA03DDDFED0C7A71EE6C
:1057E000E71ADFED0B2AB7EE002A03F1200203F1DE
:1057F0009C0103F1700093ED261AD3ED240A93ED7A
:10580000250AFFF76DFF08BDDB0F4940DB0FC940DC
:10581000ACC527390000000070B52DED028B0446A1
:105820000D460846FFF7AAFA84ED010A2846FFF75D
:10583000B9FAB0EE401A84ED020AD4ED010AF1EE95
:10584000601A71EEC01AC4ED031A04F11C0504F1CC
:1058500018063146284694ED170AFFF7C1FA9FED66
:105860000E8BB5EE001AB0EE480AF0EE680A04F1AD
:10587000300231463046FFF7C3F9B5EE001AB0EEFC
:10588000480AF0EE680A04F1340229462846FFF778
:10589000B7F9BDEC028B70BD00000000006AB84093
:1058A00010B5044600F028FC84ED170AB5EEC00AD6
:1058B000F1EE10FA00D410BDDFED037A30EE270AC6
:1058C00084ED170AF7E700BFDB0FC94090ED177AA8
:1058D000D0ED187A77EE677AF8EE086AF4EEE67A99
:1058E000F1EE10FA12D5DFED146A77EEA67AC7EE64
:1058F000806AC0ED1E6A90ED1E6AF1EE0C6AC6EE7B
:10590000267AC0ED1E7A80ED187A7047F0EE086AAC
:10591000F4EEE67AF1EE10FA08DDDFED076A77EED5
:10592000E67AC7EE806AC0ED1E6AE4E7C7EE806AD9
:10593000C0ED1E6ADFE700BFDB0FC940D0ED007A83
:10594000F0EEE76A9FED0C7AF4EEC76AF1EE10FA1A
:105950000ADB9FED0A7A67EE877A9FED097A77EE88
:10596000877AC0ED007A7047B0EE047A67EE877AE6
:10597000C0ED007A704700BF0AD7233C7F6A7C3FA6
:105980004260653C0000000070B52DED028B82B0D6
:1059900004469FED790AFFF799FF94F8A830312B60
:1059A00000F0CB80322B00F0D980206AFAF78CFD12
:1059B0009FED6D1B41EC100B07F0F0FA9FED6C1B97
:1059C00007F0C4FA51EC100BFBF798F820620023A3
:1059D000636204F14006B1EE041A334604F1180282
:1059E00004F1200104F12800D4ED210A94ED200AED
:1059F000FFF72FFE04F14405B1EE041A2B4604F123
:105A00001C0204F1240104F12C00D4ED210A94EDD0
:105A1000200AFFF71EFEB3EE070A31462846FFF7BD
:105A2000B7F894ED117AB3EE078AC7EE087ACDED98
:105A3000017A94ED107AC7EE087ACDED007A01A8CC
:105A4000FFF77CFF6846FFF779FFDDED017A67EE2F
:105A5000887AC4ED117ADDED007A27EE888A84ED2C
:105A6000108AE36D23662046FFF71AFF04F15802FF
:105A700004F1540104F1500094ED101AD4ED110A10
:105A800094ED170AFFF702FA94ED161AD4ED150AF1
:105A900094ED140A2068FFF747FA236893ED007A23
:105AA000F7EE007A37EEC77ADFED346A27EE267A12
:105AB000BDEEC77A83ED037A236893ED017A37EE62
:105AC000C77A27EE267ABDEEC77A83ED047A23687B
:105AD00093ED027A77EEC77A67EEA67AFDEEE77A63
:105AE000C3ED057AD4F8A0301BBB236893ED027A8E
:105AF000F7EE007A37EEC77A27EE267ABCEEC77A41
:105B00001F4B83ED0D7A226892ED017A37EEC77A4A
